{
  "address": "0xc828BAC5a1dfE9dF78Ee6d3564D505F2B7F2c91A",
  "abi": [
    {
      "inputs": [
        {
          "internalType": "string",
          "name": "initialURI",
          "type": "string"
        }
      ],
      "stateMutability": "nonpayable",
      "type": "constructor"
    },
    {
      "anonymous": false,
      "inputs": [
        {
          "indexed": true,
          "internalType": "address",
          "name": "owner",
          "type": "address"
        },
        {
          "indexed": true,
          "internalType": "address",
          "name": "approved",
          "type": "address"
        },
        {
          "indexed": true,
          "internalType": "uint256",
          "name": "tokenId",
          "type": "uint256"
        }
      ],
      "name": "Approval",
      "type": "event"
    },
    {
      "anonymous": false,
      "inputs": [
        {
          "indexed": true,
          "internalType": "address",
          "name": "owner",
          "type": "address"
        },
        {
          "indexed": true,
          "internalType": "address",
          "name": "operator",
          "type": "address"
        },
        {
          "indexed": false,
          "internalType": "bool",
          "name": "approved",
          "type": "bool"
        }
      ],
      "name": "ApprovalForAll",
      "type": "event"
    },
    {
      "anonymous": false,
      "inputs": [
        {
          "indexed": true,
          "internalType": "address",
          "name": "billboardSetter",
          "type": "address"
        },
        {
          "indexed": false,
          "internalType": "string",
          "name": "newBillboard",
          "type": "string"
        },
        {
          "indexed": false,
          "internalType": "string",
          "name": "newBillboardURL",
          "type": "string"
        },
        {
          "indexed": false,
          "internalType": "uint256",
          "name": "value",
          "type": "uint256"
        }
      ],
      "name": "BillboardChange",
      "type": "event"
    },
    {
      "anonymous": false,
      "inputs": [
        {
          "indexed": true,
          "internalType": "address",
          "name": "contractAddress",
          "type": "address"
        }
      ],
      "name": "ContractWhitelistAdd",
      "type": "event"
    },
    {
      "anonymous": false,
      "inputs": [
        {
          "indexed": true,
          "internalType": "address",
          "name": "contractAddress",
          "type": "address"
        }
      ],
      "name": "ContractWhitelistRemove",
      "type": "event"
    },
    {
      "anonymous": false,
      "inputs": [
        {
          "indexed": true,
          "internalType": "uint256",
          "name": "epochIndex",
          "type": "uint256"
        },
        {
          "indexed": false,
          "internalType": "uint256",
          "name": "nftsMinted",
          "type": "uint256"
        },
        {
          "indexed": false,
          "internalType": "uint256",
          "name": "amtOwed",
          "type": "uint256"
        }
      ],
      "name": "EpochUpdated",
      "type": "event"
    },
    {
      "anonymous": false,
      "inputs": [
        {
          "indexed": true,
          "internalType": "address",
          "name": "previousOwner",
          "type": "address"
        },
        {
          "indexed": true,
          "internalType": "address",
          "name": "newOwner",
          "type": "address"
        }
      ],
      "name": "OwnershipTransferred",
      "type": "event"
    },
    {
      "anonymous": false,
      "inputs": [
        {
          "indexed": true,
          "internalType": "address",
          "name": "from",
          "type": "address"
        },
        {
          "indexed": true,
          "internalType": "address",
          "name": "to",
          "type": "address"
        },
        {
          "indexed": true,
          "internalType": "uint256",
          "name": "tokenId",
          "type": "uint256"
        }
      ],
      "name": "Transfer",
      "type": "event"
    },
    {
      "anonymous": false,
      "inputs": [
        {
          "indexed": true,
          "internalType": "uint256",
          "name": "epochNumber",
          "type": "uint256"
        },
        {
          "indexed": true,
          "internalType": "uint256",
          "name": "nftId",
          "type": "uint256"
        },
        {
          "indexed": false,
          "internalType": "uint256",
          "name": "amountOwed",
          "type": "uint256"
        }
      ],
      "name": "WithdrawalSuccessful",
      "type": "event"
    },
    {
      "inputs": [],
      "name": "_tokenIds",
      "outputs": [
        {
          "internalType": "uint256",
          "name": "_value",
          "type": "uint256"
        }
      ],
      "stateMutability": "view",
      "type": "function"
    },
    {
      "inputs": [
        {
          "internalType": "address",
          "name": "_contract",
          "type": "address"
        }
      ],
      "name": "adminAddWhitelist",
      "outputs": [],
      "stateMutability": "nonpayable",
      "type": "function"
    },
    {
      "inputs": [
        {
          "internalType": "address",
          "name": "_contract",
          "type": "address"
        }
      ],
      "name": "adminRemoveWhitelist",
      "outputs": [],
      "stateMutability": "nonpayable",
      "type": "function"
    },
    {
      "inputs": [
        {
          "internalType": "string",
          "name": "_newBillboardMessage",
          "type": "string"
        },
        {
          "internalType": "string",
          "name": "_newBillboardURL",
          "type": "string"
        }
      ],
      "name": "adminSetBillboardMessage",
      "outputs": [],
      "stateMutability": "nonpayable",
      "type": "function"
    },
    {
      "inputs": [
        {
          "internalType": "uint256",
          "name": "_newFeePercent",
          "type": "uint256"
        }
      ],
      "name": "adminSetProtocolFee",
      "outputs": [],
      "stateMutability": "nonpayable",
      "type": "function"
    },
    {
      "inputs": [
        {
          "internalType": "address",
          "name": "to",
          "type": "address"
        },
        {
          "internalType": "uint256",
          "name": "tokenId",
          "type": "uint256"
        }
      ],
      "name": "approve",
      "outputs": [],
      "stateMutability": "nonpayable",
      "type": "function"
    },
    {
      "inputs": [
        {
          "internalType": "address",
          "name": "owner",
          "type": "address"
        }
      ],
      "name": "balanceOf",
      "outputs": [
        {
          "internalType": "uint256",
          "name": "",
          "type": "uint256"
        }
      ],
      "stateMutability": "view",
      "type": "function"
    },
    {
      "inputs": [],
      "name": "basePrice",
      "outputs": [
        {
          "internalType": "uint256",
          "name": "",
          "type": "uint256"
        }
      ],
      "stateMutability": "view",
      "type": "function"
    },
    {
      "inputs": [],
      "name": "billboard",
      "outputs": [
        {
          "internalType": "string",
          "name": "",
          "type": "string"
        }
      ],
      "stateMutability": "view",
      "type": "function"
    },
    {
      "inputs": [],
      "name": "billboardURL",
      "outputs": [
        {
          "internalType": "string",
          "name": "",
          "type": "string"
        }
      ],
      "stateMutability": "view",
      "type": "function"
    },
    {
      "inputs": [
        {
          "internalType": "uint256",
          "name": "tokenId",
          "type": "uint256"
        }
      ],
      "name": "burn",
      "outputs": [],
      "stateMutability": "nonpayable",
      "type": "function"
    },
    {
      "inputs": [
        {
          "internalType": "uint256",
          "name": "epochNumber",
          "type": "uint256"
        },
        {
          "internalType": "uint256",
          "name": "nftId",
          "type": "uint256"
        }
      ],
      "name": "claimShare",
      "outputs": [],
      "stateMutability": "nonpayable",
      "type": "function"
    },
    {
      "inputs": [
        {
          "internalType": "uint256",
          "name": "nftId",
          "type": "uint256"
        }
      ],
      "name": "claimShareAll",
      "outputs": [],
      "stateMutability": "nonpayable",
      "type": "function"
    },
    {
      "inputs": [],
      "name": "currentEpoch",
      "outputs": [
        {
          "internalType": "uint256",
          "name": "",
          "type": "uint256"
        }
      ],
      "stateMutability": "view",
      "type": "function"
    },
    {
      "inputs": [],
      "name": "decreaseRate",
      "outputs": [
        {
          "internalType": "uint256",
          "name": "",
          "type": "uint256"
        }
      ],
      "stateMutability": "view",
      "type": "function"
    },
    {
      "inputs": [
        {
          "internalType": "uint256",
          "name": "",
          "type": "uint256"
        }
      ],
      "name": "epochs",
      "outputs": [
        {
          "internalType": "uint256",
          "name": "nftsMinted",
          "type": "uint256"
        },
        {
          "internalType": "uint256",
          "name": "amtOwed",
          "type": "uint256"
        }
      ],
      "stateMutability": "view",
      "type": "function"
    },
    {
      "inputs": [],
      "name": "getAdjustedPrice",
      "outputs": [
        {
          "internalType": "uint256",
          "name": "",
          "type": "uint256"
        }
      ],
      "stateMutability": "view",
      "type": "function"
    },
    {
      "inputs": [
        {
          "internalType": "uint256",
          "name": "tokenId",
          "type": "uint256"
        }
      ],
      "name": "getApproved",
      "outputs": [
        {
          "internalType": "address",
          "name": "",
          "type": "address"
        }
      ],
      "stateMutability": "view",
      "type": "function"
    },
    {
      "inputs": [],
      "name": "increaseRate",
      "outputs": [
        {
          "internalType": "uint256",
          "name": "",
          "type": "uint256"
        }
      ],
      "stateMutability": "view",
      "type": "function"
    },
    {
      "inputs": [
        {
          "internalType": "address",
          "name": "owner",
          "type": "address"
        },
        {
          "internalType": "address",
          "name": "operator",
          "type": "address"
        }
      ],
      "name": "isApprovedForAll",
      "outputs": [
        {
          "internalType": "bool",
          "name": "",
          "type": "bool"
        }
      ],
      "stateMutability": "view",
      "type": "function"
    },
    {
      "inputs": [],
      "name": "lastPrice",
      "outputs": [
        {
          "internalType": "uint256",
          "name": "",
          "type": "uint256"
        }
      ],
      "stateMutability": "view",
      "type": "function"
    },
    {
      "inputs": [],
      "name": "lastUpdateTime",
      "outputs": [
        {
          "internalType": "uint256",
          "name": "",
          "type": "uint256"
        }
      ],
      "stateMutability": "view",
      "type": "function"
    },
    {
      "inputs": [
        {
          "internalType": "address",
          "name": "nftContract",
          "type": "address"
        },
        {
          "internalType": "uint256",
          "name": "tokenId",
          "type": "uint256"
        }
      ],
      "name": "mintNFT",
      "outputs": [],
      "stateMutability": "nonpayable",
      "type": "function"
    },
    {
      "inputs": [],
      "name": "name",
      "outputs": [
        {
          "internalType": "string",
          "name": "",
          "type": "string"
        }
      ],
      "stateMutability": "view",
      "type": "function"
    },
    {
      "inputs": [],
      "name": "owner",
      "outputs": [
        {
          "internalType": "address",
          "name": "",
          "type": "address"
        }
      ],
      "stateMutability": "view",
      "type": "function"
    },
    {
      "inputs": [
        {
          "internalType": "uint256",
          "name": "tokenId",
          "type": "uint256"
        }
      ],
      "name": "ownerOf",
      "outputs": [
        {
          "internalType": "address",
          "name": "",
          "type": "address"
        }
      ],
      "stateMutability": "view",
      "type": "function"
    },
    {
      "inputs": [],
      "name": "protocolFee",
      "outputs": [
        {
          "internalType": "uint256",
          "name": "",
          "type": "uint256"
        }
      ],
      "stateMutability": "view",
      "type": "function"
    },
    {
      "inputs": [],
      "name": "protocolRevenue",
      "outputs": [
        {
          "internalType": "uint256",
          "name": "",
          "type": "uint256"
        }
      ],
      "stateMutability": "view",
      "type": "function"
    },
    {
      "inputs": [],
      "name": "renounceOwnership",
      "outputs": [],
      "stateMutability": "nonpayable",
      "type": "function"
    },
    {
      "inputs": [
        {
          "internalType": "address",
          "name": "from",
          "type": "address"
        },
        {
          "internalType": "address",
          "name": "to",
          "type": "address"
        },
        {
          "internalType": "uint256",
          "name": "tokenId",
          "type": "uint256"
        }
      ],
      "name": "safeTransferFrom",
      "outputs": [],
      "stateMutability": "nonpayable",
      "type": "function"
    },
    {
      "inputs": [
        {
          "internalType": "address",
          "name": "from",
          "type": "address"
        },
        {
          "internalType": "address",
          "name": "to",
          "type": "address"
        },
        {
          "internalType": "uint256",
          "name": "tokenId",
          "type": "uint256"
        },
        {
          "internalType": "bytes",
          "name": "data",
          "type": "bytes"
        }
      ],
      "name": "safeTransferFrom",
      "outputs": [],
      "stateMutability": "nonpayable",
      "type": "function"
    },
    {
      "inputs": [
        {
          "internalType": "address",
          "name": "operator",
          "type": "address"
        },
        {
          "internalType": "bool",
          "name": "approved",
          "type": "bool"
        }
      ],
      "name": "setApprovalForAll",
      "outputs": [],
      "stateMutability": "nonpayable",
      "type": "function"
    },
    {
      "inputs": [
        {
          "internalType": "uint256",
          "name": "_newBasePrice",
          "type": "uint256"
        }
      ],
      "name": "setBasePrice",
      "outputs": [],
      "stateMutability": "nonpayable",
      "type": "function"
    },
    {
      "inputs": [
        {
          "internalType": "string",
          "name": "_newBillboardMessage",
          "type": "string"
        },
        {
          "internalType": "string",
          "name": "_newBillboardURL",
          "type": "string"
        }
      ],
      "name": "setBillboard",
      "outputs": [],
      "stateMutability": "payable",
      "type": "function"
    },
    {
      "inputs": [
        {
          "internalType": "string",
          "name": "newURI",
          "type": "string"
        }
      ],
      "name": "setCommonURI",
      "outputs": [],
      "stateMutability": "nonpayable",
      "type": "function"
    },
    {
      "inputs": [
        {
          "internalType": "uint256",
          "name": "_newDecreaseRate",
          "type": "uint256"
        }
      ],
      "name": "setDecreaseRate",
      "outputs": [],
      "stateMutability": "nonpayable",
      "type": "function"
    },
    {
      "inputs": [
        {
          "internalType": "uint256",
          "name": "_newIncreaseRate",
          "type": "uint256"
        }
      ],
      "name": "setIncreaseRate",
      "outputs": [],
      "stateMutability": "nonpayable",
      "type": "function"
    },
    {
      "inputs": [
        {
          "internalType": "bytes4",
          "name": "interfaceId",
          "type": "bytes4"
        }
      ],
      "name": "supportsInterface",
      "outputs": [
        {
          "internalType": "bool",
          "name": "",
          "type": "bool"
        }
      ],
      "stateMutability": "view",
      "type": "function"
    },
    {
      "inputs": [],
      "name": "symbol",
      "outputs": [
        {
          "internalType": "string",
          "name": "",
          "type": "string"
        }
      ],
      "stateMutability": "view",
      "type": "function"
    },
    {
      "inputs": [
        {
          "internalType": "uint256",
          "name": "index",
          "type": "uint256"
        }
      ],
      "name": "tokenByIndex",
      "outputs": [
        {
          "internalType": "uint256",
          "name": "",
          "type": "uint256"
        }
      ],
      "stateMutability": "view",
      "type": "function"
    },
    {
      "inputs": [
        {
          "internalType": "address",
          "name": "owner",
          "type": "address"
        },
        {
          "internalType": "uint256",
          "name": "index",
          "type": "uint256"
        }
      ],
      "name": "tokenOfOwnerByIndex",
      "outputs": [
        {
          "internalType": "uint256",
          "name": "",
          "type": "uint256"
        }
      ],
      "stateMutability": "view",
      "type": "function"
    },
    {
      "inputs": [
        {
          "internalType": "uint256",
          "name": "tokenId",
          "type": "uint256"
        }
      ],
      "name": "tokenURI",
      "outputs": [
        {
          "internalType": "string",
          "name": "",
          "type": "string"
        }
      ],
      "stateMutability": "view",
      "type": "function"
    },
    {
      "inputs": [],
      "name": "totalActiveTokens",
      "outputs": [
        {
          "internalType": "uint256",
          "name": "",
          "type": "uint256"
        }
      ],
      "stateMutability": "view",
      "type": "function"
    },
    {
      "inputs": [],
      "name": "totalSupply",
      "outputs": [
        {
          "internalType": "uint256",
          "name": "",
          "type": "uint256"
        }
      ],
      "stateMutability": "view",
      "type": "function"
    },
    {
      "inputs": [
        {
          "internalType": "address",
          "name": "from",
          "type": "address"
        },
        {
          "internalType": "address",
          "name": "to",
          "type": "address"
        },
        {
          "internalType": "uint256",
          "name": "tokenId",
          "type": "uint256"
        }
      ],
      "name": "transferFrom",
      "outputs": [],
      "stateMutability": "nonpayable",
      "type": "function"
    },
    {
      "inputs": [
        {
          "internalType": "address",
          "name": "newOwner",
          "type": "address"
        }
      ],
      "name": "transferOwnership",
      "outputs": [],
      "stateMutability": "nonpayable",
      "type": "function"
    },
    {
      "inputs": [
        {
          "internalType": "address",
          "name": "",
          "type": "address"
        },
        {
          "internalType": "uint256",
          "name": "",
          "type": "uint256"
        }
      ],
      "name": "usedTokens",
      "outputs": [
        {
          "internalType": "bool",
          "name": "",
          "type": "bool"
        }
      ],
      "stateMutability": "view",
      "type": "function"
    },
    {
      "inputs": [
        {
          "internalType": "address",
          "name": "",
          "type": "address"
        }
      ],
      "name": "whitelistedNFTContracts",
      "outputs": [
        {
          "internalType": "bool",
          "name": "",
          "type": "bool"
        }
      ],
      "stateMutability": "view",
      "type": "function"
    },
    {
      "inputs": [],
      "name": "withdrawProtocolFees",
      "outputs": [],
      "stateMutability": "nonpayable",
      "type": "function"
    },
    {
      "stateMutability": "payable",
      "type": "receive"
    }
  ],
  "transactionHash": "0x7f439bbb77533afd5a3535d14c54a3e13ef4f5b63e7f0b5aa0987f25900d98f1",
  "args": [
    "https://adframe.vercel.app/api/nft/"
  ],
  "numDeployments": 6,
  "solcInputHash": "aa78b24337088576b1c2b21982e872d6",
  "bytecode": "0x600a600b556000600c819055600e5560c0604052601360809081527f5468697320537061636520666f722053616c650000000000000000000000000060a0526017906200004d908262000278565b5060408051808201909152601381527f68747470733a2f2f61646672616d652e78797a00000000000000000000000000602082015260189062000091908262000278565b5065f5904616e000601955601954601a556401e2cc3100601c55651402462f6000601d55348015620000c257600080fd5b506040516200359e3803806200359e833981016040819052620000e59162000344565b6040518060400160405280600a8152602001691059119c985b5953919560b21b81525060405180604001604052806005815260200164105193919560da1b815250816000908162000137919062000278565b50600162000146828262000278565b505050620001636200015d6200017d60201b60201c565b62000181565b42601b55601262000175828262000278565b505062000419565b3390565b600a80546001600160a01b038381166001600160a01b0319831681179093556040519116919082907f8be0079c531659141344cd1fd0a4f28419497f9722a3daafe3b4186f6b6457e090600090a35050565b634e487b7160e01b600052604160045260246000fd5b600181811c90821680620001fe57607f821691505b6020821081036200021f57634e487b7160e01b600052602260045260246000fd5b50919050565b601f8211156200027357600081815260208120601f850160051c810160208610156200024e5750805b601f850160051c820191505b818110156200026f578281556001016200025a565b5050505b505050565b81516001600160401b03811115620002945762000294620001d3565b620002ac81620002a58454620001e9565b8462000225565b602080601f831160018114620002e45760008415620002cb5750858301515b600019600386901b1c1916600185901b1785556200026f565b600085815260208120601f198616915b828110156200031557888601518255948401946001909101908401620002f4565b5085821015620003345787850151600019600388901b60f8161c191681555b5050505050600190811b01905550565b600060208083850312156200035857600080fd5b82516001600160401b03808211156200037057600080fd5b818501915085601f8301126200038557600080fd5b8151818111156200039a576200039a620001d3565b604051601f8201601f19908116603f01168101908382118183101715620003c557620003c5620001d3565b816040528281528886848701011115620003de57600080fd5b600093505b82841015620004025784840186015181850187015292850192620003e3565b600086848301015280965050505050505092915050565b61317580620004296000396000f3fe6080604052600436106102b25760003560e01c8063715018a611610175578063aa46a400116100dc578063c87b56dd11610095578063de4b32621161006f578063de4b3262146109b3578063e985e9c5146109d3578063ea08629b14610a1c578063f2fde38b14610a2f57600080fd5b8063c87b56dd1461095d578063c8f33c911461097d578063d2ea55921461099357600080fd5b8063aa46a40014610881578063b0e21e8a14610898578063b88d4fde146108ae578063c6b61e4c146108ce578063c7876ea414610917578063c7ba61bc1461092d57600080fd5b8063951e78ee1161012e578063951e78ee146107bc578063959d9fab146107f757806395d89b411461080c57806395fcc0481461082157806396d530e214610841578063a22cb4651461086157600080fd5b8063715018a614610728578063766718081461073d5780637af3816c146107535780637b981541146107695780638795cccb146107895780638da5cb5b1461079e57600080fd5b80633c168eab11610219578063520e6515116101d2578063520e65151461067e57806355fc9893146106935780635e17eb33146106b35780636352211e146106c85780636c126562146106e857806370a082311461070857600080fd5b80633c168eab146105c957806342842e0e146105e957806342966c68146106095780634aa4e57d146106295780634f13b8b91461063e5780634f6ccce71461065e57600080fd5b806323b872dd1161026b57806323b872dd1461051d5780632897183d1461053d5780632a4b122f146105535780632f745c591461056957806339059661146105895780633c168afe146105a957600080fd5b806301ffc9a714610433578063053f14da1461046857806306fdde031461048c578063081812fc146104ae578063095ea7b3146104e657806318160ddd1461050857600080fd5b3661042e57600034116102fa5760405162461bcd60e51b815260206004820152600b60248201526a139bc8115512081cd95b9d60aa1b60448201526064015b60405180910390fd5b600061030560115490565b9050600081116103485760405162461bcd60e51b815260206004820152600e60248201526d139bc81391951cc81b5a5b9d195960921b60448201526064016102f1565b60006064600b543461035a9190612930565b6103649190612947565b905080600c60008282546103789190612969565b909155506000905061038a823461297c565b90506001600e600082825461039f9190612969565b90915550600090506103b18483612947565b905060006103be60105490565b6040805180820182528281526020808201868152600e80546000908152600d8452859020935184559051600190930192909255905482518481529182018690529293507f2df6562a84e8230615692a4ab0f0a5ed8c530ddef1234943bc37aa74646bb876910160405180910390a2005b600080fd5b34801561043f57600080fd5b5061045361044e3660046129a5565b610a4f565b60405190151581526020015b60405180910390f35b34801561047457600080fd5b5061047e601a5481565b60405190815260200161045f565b34801561049857600080fd5b506104a1610a7a565b60405161045f9190612a12565b3480156104ba57600080fd5b506104ce6104c9366004612a25565b610b0c565b6040516001600160a01b03909116815260200161045f565b3480156104f257600080fd5b50610506610501366004612a53565b610b33565b005b34801561051457600080fd5b5060085461047e565b34801561052957600080fd5b50610506610538366004612a7f565b610c48565b34801561054957600080fd5b5061047e601c5481565b34801561055f57600080fd5b5061047e601d5481565b34801561057557600080fd5b5061047e610584366004612a53565b610c79565b34801561059557600080fd5b506105066105a4366004612b6c565b610d0f565b3480156105b557600080fd5b506105066105c4366004612bd0565b610e0b565b3480156105d557600080fd5b506105066105e4366004612a53565b611043565b3480156105f557600080fd5b50610506610604366004612a7f565b6112b8565b34801561061557600080fd5b50610506610624366004612a25565b6112d3565b34801561063557600080fd5b5061047e611349565b34801561064a57600080fd5b50610506610659366004612a25565b61139b565b34801561066a57600080fd5b5061047e610679366004612a25565b6113f2565b34801561068a57600080fd5b5061047e611485565b34801561069f57600080fd5b506105066106ae366004612bf2565b611495565b3480156106bf57600080fd5b506104a16114ad565b3480156106d457600080fd5b506104ce6106e3366004612a25565b61153b565b3480156106f457600080fd5b50610506610703366004612a25565b61159b565b34801561071457600080fd5b5061047e610723366004612c27565b6115a8565b34801561073457600080fd5b5061050661162e565b34801561074957600080fd5b5061047e600e5481565b34801561075f57600080fd5b5061047e600c5481565b34801561077557600080fd5b50610506610784366004612a25565b611642565b34801561079557600080fd5b506105066117e1565b3480156107aa57600080fd5b50600a546001600160a01b03166104ce565b3480156107c857600080fd5b506104536107d7366004612a53565b601560209081526000928352604080842090915290825290205460ff1681565b34801561080357600080fd5b506104a1611899565b34801561081857600080fd5b506104a16118a6565b34801561082d57600080fd5b5061050661083c366004612c27565b6118b5565b34801561084d57600080fd5b5061050661085c366004612a25565b611906565b34801561086d57600080fd5b5061050661087c366004612c44565b611913565b34801561088d57600080fd5b5060105461047e9081565b3480156108a457600080fd5b5061047e600b5481565b3480156108ba57600080fd5b506105066108c9366004612c82565b61191e565b3480156108da57600080fd5b506109026108e9366004612a25565b600d602052600090815260409020805460019091015482565b6040805192835260208301919091520161045f565b34801561092357600080fd5b5061047e60195481565b34801561093957600080fd5b50610453610948366004612c27565b60146020526000908152604090205460ff1681565b34801561096957600080fd5b506104a1610978366004612a25565b611956565b34801561098957600080fd5b5061047e601b5481565b34801561099f57600080fd5b506105066109ae366004612c27565b611a07565b3480156109bf57600080fd5b506105066109ce366004612a25565b611a5b565b3480156109df57600080fd5b506104536109ee366004612d02565b6001600160a01b03918216600090815260056020908152604080832093909416825291909152205460ff1690565b610506610a2a366004612b6c565b611a68565b348015610a3b57600080fd5b50610506610a4a366004612c27565b611c37565b60006001600160e01b0319821663780e9d6360e01b1480610a745750610a7482611cad565b92915050565b606060008054610a8990612d30565b80601f0160208091040260200160405190810160405280929190818152602001828054610ab590612d30565b8015610b025780601f10610ad757610100808354040283529160200191610b02565b820191906000526020600020905b815481529060010190602001808311610ae557829003601f168201915b5050505050905090565b6000610b1782611cfd565b506000908152600460205260409020546001600160a01b031690565b6000610b3e8261153b565b9050806001600160a01b0316836001600160a01b031603610bab5760405162461bcd60e51b815260206004820152602160248201527f4552433732313a20617070726f76616c20746f2063757272656e74206f776e656044820152603960f91b60648201526084016102f1565b336001600160a01b0382161480610bc75750610bc781336109ee565b610c395760405162461bcd60e51b815260206004820152603d60248201527f4552433732313a20617070726f76652063616c6c6572206973206e6f7420746f60448201527f6b656e206f776e6572206f7220617070726f76656420666f7220616c6c00000060648201526084016102f1565b610c438383611d5c565b505050565b610c523382611dca565b610c6e5760405162461bcd60e51b81526004016102f190612d6a565b610c43838383611e49565b6000610c84836115a8565b8210610ce65760405162461bcd60e51b815260206004820152602b60248201527f455243373231456e756d657261626c653a206f776e657220696e646578206f7560448201526a74206f6620626f756e647360a81b60648201526084016102f1565b506001600160a01b03919091166000908152600660209081526040808320938352929052205490565b610d17611e91565b8151600003610d5d576040805180820190915260138152725468697320537061636520666f722053616c6560681b6020820152601790610d579082612e05565b50610d6b565b6017610d698382612e05565b505b8051600003610db157604080518082019091526013815272343a3a38399d1797b0b2333930b6b2973c3cbd60691b6020820152601890610dab9082612e05565b50610dbf565b6018610dbd8282612e05565b505b336001600160a01b03167fc3de0fd922507907f842c767b8f5c8867f70083c0a216ae592befcda1502d9bf601760186000604051610dff93929190612f42565b60405180910390a25050565b33610e158261153b565b6001600160a01b031614610e6b5760405162461bcd60e51b815260206004820152601b60248201527f43616c6c657220646f6573206e6f74206f776e20746865204e4654000000000060448201526064016102f1565b600e54821115610eb45760405162461bcd60e51b815260206004820152601460248201527324b73b30b634b21032b837b1b410373ab6b132b960611b60448201526064016102f1565b6000828152600f6020908152604080832084845290915290205460ff1615610f125760405162461bcd60e51b815260206004820152601160248201527020b63932b0b23c903bb4ba34323930bbb760791b60448201526064016102f1565b6000828152600d602052604090208054821115610f7f5760405162461bcd60e51b815260206004820152602560248201527f4e4654204944206973206e6f7420656c696769626c6520666f722074686973206044820152640cae0dec6d60db1b60648201526084016102f1565b600181015447811115610fd45760405162461bcd60e51b815260206004820152601d60248201527f496e73756666696369656e7420636f6e74726163742062616c616e636500000060448201526064016102f1565b6000848152600f602090815260408083208684529091529020805460ff191660011790556110023382611eeb565b82847f625f0d536f64b06e1fc7914e3aa5678fc3ff7127caf393cf5c758af6965720848360405161103591815260200190565b60405180910390a350505050565b61104c336115a8565b156110995760405162461bcd60e51b815260206004820152601b60248201527f4164647265737320616c7265616479206f776e7320616e204e4654000000000060448201526064016102f1565b6001600160a01b03821660009081526014602052604090205460ff166111015760405162461bcd60e51b815260206004820152601f60248201527f4e465420636f6e7472616374206973206e6f742077686974656c69737465640060448201526064016102f1565b6001600160a01b038216600090815260156020908152604080832084845290915290205460ff16156111755760405162461bcd60e51b815260206004820152601e60248201527f546f6b656e2049442068617320616c7265616479206265656e2075736564000060448201526064016102f1565b6040516331a9108f60e11b815260048101829052829033906001600160a01b03831690636352211e90602401602060405180830381865afa1580156111be573d6000803e3d6000fd5b505050506040513d601f19601f820116820180604052508101906111e29190612f78565b6001600160a01b0316146112385760405162461bcd60e51b815260206004820152601d60248201527f43616c6c657220646f6573206e6f74206f776e2074686520746f6b656e00000060448201526064016102f1565b6001600160a01b03831660009081526015602090815260408083208584529091529020805460ff19166001179055611274601080546001019055565b600061127f60105490565b905061128b3382612004565b611299601180546001019055565b601d54601a60008282546112ad9190612969565b909155505050505050565b610c438383836040518060200160405280600081525061191e565b336112dd8261153b565b6001600160a01b0316146113335760405162461bcd60e51b815260206004820152601d60248201527f43616c6c6572206973206e6f742074686520746f6b656e206f776e657200000060448201526064016102f1565b61133c8161219d565b6113466011612240565b50565b600080601b544261135a919061297c565b90506000601c548261136c9190612930565b9050600081601a54111561138f5781601a54611388919061297c565b9050611394565b506019545b9392505050565b6113a3611e91565b60648111156113ed5760405162461bcd60e51b81526020600482015260166024820152754665652063616e6e6f7420657863656564203130302560501b60448201526064016102f1565b600b55565b60006113fd60085490565b82106114605760405162461bcd60e51b815260206004820152602c60248201527f455243373231456e756d657261626c653a20676c6f62616c20696e646578206f60448201526b7574206f6620626f756e647360a01b60648201526084016102f1565b6008828154811061147357611473612f95565b90600052602060002001549050919050565b600061149060115490565b905090565b61149d611e91565b60126114a98282612e05565b5050565b601780546114ba90612d30565b80601f01602080910402602001604051908101604052809291908181526020018280546114e690612d30565b80156115335780601f1061150857610100808354040283529160200191611533565b820191906000526020600020905b81548152906001019060200180831161151657829003601f168201915b505050505081565b6000818152600260205260408120546001600160a01b031680610a745760405162461bcd60e51b8152602060048201526018602482015277115490cdcc8c4e881a5b9d985b1a59081d1bdad95b88125160421b60448201526064016102f1565b6115a3611e91565b601c55565b60006001600160a01b0382166116125760405162461bcd60e51b815260206004820152602960248201527f4552433732313a2061646472657373207a65726f206973206e6f7420612076616044820152683634b21037bbb732b960b91b60648201526084016102f1565b506001600160a01b031660009081526003602052604090205490565b611636611e91565b6116406000612297565b565b3361164c8261153b565b6001600160a01b0316146116a25760405162461bcd60e51b815260206004820152601b60248201527f43616c6c657220646f6573206e6f74206f776e20746865204e4654000000000060448201526064016102f1565b600060015b600e5481116117d0576000818152600f6020908152604080832086845290915290205460ff161580156116e857506000818152600d60205260409020548311155b156117be576000818152600d602052604090206001810154478111156117505760405162461bcd60e51b815260206004820152601d60248201527f496e73756666696369656e7420636f6e74726163742062616c616e636500000060448201526064016102f1565b6000838152600f602090815260408083208884529091529020805460ff1916600117905561177e8185612969565b935084837f625f0d536f64b06e1fc7914e3aa5678fc3ff7127caf393cf5c758af696572084836040516117b391815260200190565b60405180910390a350505b806117c881612fab565b9150506116a7565b5080156114a9576114a93382611eeb565b6117e9611e91565b600c805460009182905590611806600a546001600160a01b031690565b6001600160a01b03168260405160006040518083038185875af1925050503d8060008114611850576040519150601f19603f3d011682016040523d82523d6000602084013e611855565b606091505b50509050806114a95760405162461bcd60e51b815260206004820152601060248201526f2a3930b739b332b9103330b4b632b21760811b60448201526064016102f1565b601880546114ba90612d30565b606060018054610a8990612d30565b6118bd611e91565b6001600160a01b038116600081815260146020526040808220805460ff19169055517f04eb5e06ec7abf783bcd3e08914c32dc2970815328df1eda41df4c32c9b69c789190a250565b61190e611e91565b601d55565b6114a93383836122e9565b6119283383611dca565b6119445760405162461bcd60e51b81526004016102f190612d6a565b611950848484846123b7565b50505050565b6000818152600260205260409020546060906001600160a01b03166119d55760405162461bcd60e51b815260206004820152602f60248201527f4552433732314d657461646174613a2055524920717565727920666f72206e6f60448201526e3732bc34b9ba32b73a103a37b5b2b760891b60648201526084016102f1565b60126119e0836123ea565b6040516020016119f1929190612fc4565b6040516020818303038152906040529050919050565b611a0f611e91565b6001600160a01b038116600081815260146020526040808220805460ff19166001179055517f1699bb164a26a3c0846bf2d43e220dbfebf20438e115f3675a17b36c23edd8589190a250565b611a63611e91565b601955565b6000611a72611349565b905080341015611ac45760405162461bcd60e51b815260206004820152601760248201527f496e73756666696369656e742066756e64732073656e7400000000000000000060448201526064016102f1565b6017611ad08482612e05565b506018611add8382612e05565b50601d54611aeb9034612969565b601a5542601b55600b54600090606490611b059034612930565b611b0f9190612947565b905080600c6000828254611b239190612969565b9091555060009050611b35823461297c565b90506001600e6000828254611b4a9190612969565b909155505060115460008115611b6b57611b648284612947565b9050611b6f565b5060005b6000611b7a60105490565b6040805180820182528281526020808201868152600e80546000908152600d8452859020935184559051600190930192909255905482518481529182018690529293507f2df6562a84e8230615692a4ab0f0a5ed8c530ddef1234943bc37aa74646bb876910160405180910390a2336001600160a01b03167fc3de0fd922507907f842c767b8f5c8867f70083c0a216ae592befcda1502d9bf898934604051611c2593929190613058565b60405180910390a25050505050505050565b611c3f611e91565b6001600160a01b038116611ca45760405162461bcd60e51b815260206004820152602660248201527f4f776e61626c653a206e6577206f776e657220697320746865207a65726f206160448201526564647265737360d01b60648201526084016102f1565b61134681612297565b60006001600160e01b031982166380ac58cd60e01b1480611cde57506001600160e01b03198216635b5e139f60e01b145b80610a7457506301ffc9a760e01b6001600160e01b0319831614610a74565b6000818152600260205260409020546001600160a01b03166113465760405162461bcd60e51b8152602060048201526018602482015277115490cdcc8c4e881a5b9d985b1a59081d1bdad95b88125160421b60448201526064016102f1565b600081815260046020526040902080546001600160a01b0319166001600160a01b0384169081179091558190611d918261153b565b6001600160a01b03167f8c5be1e5ebec7d5bd14f71427d1e84f3dd0314c0f7b2291e5b200ac8c7c3b92560405160405180910390a45050565b600080611dd68361153b565b9050806001600160a01b0316846001600160a01b03161480611e1d57506001600160a01b0380821660009081526005602090815260408083209388168352929052205460ff165b80611e415750836001600160a01b0316611e3684610b0c565b6001600160a01b0316145b949350505050565b60405162461bcd60e51b815260206004820152601960248201527f4e46547320617265206e6f6e2d7472616e7366657261626c650000000000000060448201526064016102f1565b600a546001600160a01b031633146116405760405162461bcd60e51b815260206004820181905260248201527f4f776e61626c653a2063616c6c6572206973206e6f7420746865206f776e657260448201526064016102f1565b80471015611f3b5760405162461bcd60e51b815260206004820152601d60248201527f416464726573733a20696e73756666696369656e742062616c616e636500000060448201526064016102f1565b6000826001600160a01b03168260405160006040518083038185875af1925050503d8060008114611f88576040519150601f19603f3d011682016040523d82523d6000602084013e611f8d565b606091505b5050905080610c435760405162461bcd60e51b815260206004820152603a60248201527f416464726573733a20756e61626c6520746f2073656e642076616c75652c207260448201527f6563697069656e74206d6179206861766520726576657274656400000000000060648201526084016102f1565b6001600160a01b03821661205a5760405162461bcd60e51b815260206004820181905260248201527f4552433732313a206d696e7420746f20746865207a65726f206164647265737360448201526064016102f1565b6000818152600260205260409020546001600160a01b0316156120bf5760405162461bcd60e51b815260206004820152601c60248201527f4552433732313a20746f6b656e20616c7265616479206d696e7465640000000060448201526064016102f1565b6120cd60008383600161247d565b6000818152600260205260409020546001600160a01b0316156121325760405162461bcd60e51b815260206004820152601c60248201527f4552433732313a20746f6b656e20616c7265616479206d696e7465640000000060448201526064016102f1565b6001600160a01b038216600081815260036020908152604080832080546001019055848352600290915280822080546001600160a01b0319168417905551839291907fddf252ad1be2c89b69c2b068fc378daa952ba7f163c4a11628f55a4df523b3ef908290a45050565b60006121a88261153b565b90506121b881600084600161247d565b6121c18261153b565b600083815260046020908152604080832080546001600160a01b03199081169091556001600160a01b0385168085526003845282852080546000190190558785526002909352818420805490911690555192935084927fddf252ad1be2c89b69c2b068fc378daa952ba7f163c4a11628f55a4df523b3ef908390a45050565b80548061228f5760405162461bcd60e51b815260206004820152601b60248201527f436f756e7465723a2064656372656d656e74206f766572666c6f77000000000060448201526064016102f1565b600019019055565b600a80546001600160a01b038381166001600160a01b0319831681179093556040519116919082907f8be0079c531659141344cd1fd0a4f28419497f9722a3daafe3b4186f6b6457e090600090a35050565b816001600160a01b0316836001600160a01b03160361234a5760405162461bcd60e51b815260206004820152601960248201527f4552433732313a20617070726f766520746f2063616c6c65720000000000000060448201526064016102f1565b6001600160a01b03838116600081815260056020908152604080832094871680845294825291829020805460ff191686151590811790915591519182527f17307eab39ab6107e8899845ad3d59bd9653f200f220920489ca2b5937696c31910160405180910390a3505050565b6123c2848484611e49565b6123ce848484846125b1565b6119505760405162461bcd60e51b81526004016102f19061307d565b606060006123f7836126b2565b600101905060008167ffffffffffffffff81111561241757612417612ac0565b6040519080825280601f01601f191660200182016040528015612441576020820181803683370190505b5090508181016020015b600019016f181899199a1a9b1b9c1cb0b131b232b360811b600a86061a8153600a850494508461244b57509392505050565b60018111156124ec5760405162461bcd60e51b815260206004820152603560248201527f455243373231456e756d657261626c653a20636f6e7365637574697665207472604482015274185b9cd9995c9cc81b9bdd081cdd5c1c1bdc9d1959605a1b60648201526084016102f1565b816001600160a01b0385166125485761254381600880546000838152600960205260408120829055600182018355919091527ff3f7a9fe364faab93b216da50a3214154f22a0a2b415b23a84c8169e8b636ee30155565b61256b565b836001600160a01b0316856001600160a01b03161461256b5761256b858261278a565b6001600160a01b0384166125875761258281612827565b6125aa565b846001600160a01b0316846001600160a01b0316146125aa576125aa84826128d6565b5050505050565b60006001600160a01b0384163b156126a757604051630a85bd0160e11b81526001600160a01b0385169063150b7a02906125f59033908990889088906004016130cf565b6020604051808303816000875af1925050508015612630575060408051601f3d908101601f1916820190925261262d9181019061310c565b60015b61268d573d80801561265e576040519150601f19603f3d011682016040523d82523d6000602084013e612663565b606091505b5080516000036126855760405162461bcd60e51b81526004016102f19061307d565b805181602001fd5b6001600160e01b031916630a85bd0160e11b149050611e41565b506001949350505050565b60008072184f03e93ff9f4daa797ed6e38ed64bf6a1f0160401b83106126f15772184f03e93ff9f4daa797ed6e38ed64bf6a1f0160401b830492506040015b6d04ee2d6d415b85acef8100000000831061271d576d04ee2d6d415b85acef8100000000830492506020015b662386f26fc10000831061273b57662386f26fc10000830492506010015b6305f5e1008310612753576305f5e100830492506008015b612710831061276757612710830492506004015b60648310612779576064830492506002015b600a8310610a745760010192915050565b60006001612797846115a8565b6127a1919061297c565b6000838152600760205260409020549091508082146127f4576001600160a01b03841660009081526006602090815260408083208584528252808320548484528184208190558352600790915290208190555b5060009182526007602090815260408084208490556001600160a01b039094168352600681528383209183525290812055565b6008546000906128399060019061297c565b6000838152600960205260408120546008805493945090928490811061286157612861612f95565b90600052602060002001549050806008838154811061288257612882612f95565b60009182526020808320909101929092558281526009909152604080822084905585825281205560088054806128ba576128ba613129565b6001900381819060005260206000200160009055905550505050565b60006128e1836115a8565b6001600160a01b039093166000908152600660209081526040808320868452825280832085905593825260079052919091209190915550565b634e487b7160e01b600052601160045260246000fd5b8082028115828204841417610a7457610a7461291a565b60008261296457634e487b7160e01b600052601260045260246000fd5b500490565b80820180821115610a7457610a7461291a565b81810381811115610a7457610a7461291a565b6001600160e01b03198116811461134657600080fd5b6000602082840312156129b757600080fd5b81356113948161298f565b60005b838110156129dd5781810151838201526020016129c5565b50506000910152565b600081518084526129fe8160208601602086016129c2565b601f01601f19169290920160200192915050565b60208152600061139460208301846129e6565b600060208284031215612a3757600080fd5b5035919050565b6001600160a01b038116811461134657600080fd5b60008060408385031215612a6657600080fd5b8235612a7181612a3e565b946020939093013593505050565b600080600060608486031215612a9457600080fd5b8335612a9f81612a3e565b92506020840135612aaf81612a3e565b929592945050506040919091013590565b634e487b7160e01b600052604160045260246000fd5b600067ffffffffffffffff80841115612af157612af1612ac0565b604051601f8501601f19908116603f01168101908282118183101715612b1957612b19612ac0565b81604052809350858152868686011115612b3257600080fd5b858560208301376000602087830101525050509392505050565b600082601f830112612b5d57600080fd5b61139483833560208501612ad6565b60008060408385031215612b7f57600080fd5b823567ffffffffffffffff80821115612b9757600080fd5b612ba386838701612b4c565b93506020850135915080821115612bb957600080fd5b50612bc685828601612b4c565b9150509250929050565b60008060408385031215612be357600080fd5b50508035926020909101359150565b600060208284031215612c0457600080fd5b813567ffffffffffffffff811115612c1b57600080fd5b611e4184828501612b4c565b600060208284031215612c3957600080fd5b813561139481612a3e565b60008060408385031215612c5757600080fd5b8235612c6281612a3e565b915060208301358015158114612c7757600080fd5b809150509250929050565b60008060008060808587031215612c9857600080fd5b8435612ca381612a3e565b93506020850135612cb381612a3e565b925060408501359150606085013567ffffffffffffffff811115612cd657600080fd5b8501601f81018713612ce757600080fd5b612cf687823560208401612ad6565b91505092959194509250565b60008060408385031215612d1557600080fd5b8235612d2081612a3e565b91506020830135612c7781612a3e565b600181811c90821680612d4457607f821691505b602082108103612d6457634e487b7160e01b600052602260045260246000fd5b50919050565b6020808252602d908201527f4552433732313a2063616c6c6572206973206e6f7420746f6b656e206f776e6560408201526c1c881bdc88185c1c1c9bdd9959609a1b606082015260800190565b601f821115610c4357600081815260208120601f850160051c81016020861015612dde5750805b601f850160051c820191505b81811015612dfd57828155600101612dea565b505050505050565b815167ffffffffffffffff811115612e1f57612e1f612ac0565b612e3381612e2d8454612d30565b84612db7565b602080601f831160018114612e685760008415612e505750858301515b600019600386901b1c1916600185901b178555612dfd565b600085815260208120601f198616915b82811015612e9757888601518255948401946001909101908401612e78565b5085821015612eb55787850151600019600388901b60f8161c191681555b5050505050600190811b01905550565b60008154612ed281612d30565b808552602060018381168015612eef5760018114612f0957612f37565b60ff1985168884015283151560051b880183019550612f37565b866000528260002060005b85811015612f2f5781548a8201860152908301908401612f14565b890184019650505b505050505092915050565b606081526000612f556060830186612ec5565b8281036020840152612f678186612ec5565b915050826040830152949350505050565b600060208284031215612f8a57600080fd5b815161139481612a3e565b634e487b7160e01b600052603260045260246000fd5b600060018201612fbd57612fbd61291a565b5060010190565b6000808454612fd281612d30565b60018281168015612fea5760018114612fff5761302e565b60ff198416875282151583028701945061302e565b8860005260208060002060005b858110156130255781548a82015290840190820161300c565b50505082870194505b50602f60f81b84528651925061304a8382860160208a016129c2565b919092010195945050505050565b60608152600061306b60608301866129e6565b8281036020840152612f6781866129e6565b60208082526032908201527f4552433732313a207472616e7366657220746f206e6f6e20455243373231526560408201527131b2b4bb32b91034b6b83632b6b2b73a32b960711b606082015260800190565b6001600160a01b0385811682528416602082015260408101839052608060608201819052600090613102908301846129e6565b9695505050505050565b60006020828403121561311e57600080fd5b81516113948161298f565b634e487b7160e01b600052603160045260246000fdfea2646970667358221220c49be233e827c5099f043d89b2a44248c8ef8d42100fe33d891300d24b3589b364736f6c63430008110033",
  "devdoc": {
    "author": "zherring",
    "events": {
      "BillboardChange(address,string,string,uint256)": {
        "details": "Emitted when the billboard message and URL are changed.",
        "params": {
          "billboardSetter": "The address that changed the billboard.",
          "newBillboard": "The new billboard message.",
          "newBillboardURL": "The new URL for the billboard.",
          "value": "The value sent with the change, which is used to calculate the protocol fee."
        }
      },
      "EpochUpdated(uint256,uint256,uint256)": {
        "details": "Emitted when an epoch is updated.",
        "params": {
          "amtOwed": "The amount owed to each NFT owner in the updated epoch.",
          "epochIndex": "The index of the updated epoch.",
          "nftsMinted": "The number of NFTs minted in the updated epoch."
        }
      },
      "WithdrawalSuccessful(uint256,uint256,uint256)": {
        "details": "Emitted when a withdrawal is successful.",
        "params": {
          "amountOwed": "The amount withdrawn by the NFT owner.",
          "epochNumber": "The epoch number for which the withdrawal was made.",
          "nftId": "The ID of the NFT for which the withdrawal was made."
        }
      }
    },
    "kind": "dev",
    "methods": {
      "adminAddWhitelist(address)": {
        "details": "Adds an NFT contract address to the whitelist, allowing tokens from this contract to be used for minting in the AdFrame contract. Only the owner of the AdFrame contract can add contracts to the whitelist. Emits a `ContractWhitelisted` event upon successfully adding a contract to the whitelist. Requirements: - The caller must be the owner of the AdFrame contract.",
        "params": {
          "_contract": "The address of the NFT contract to add to the whitelist."
        }
      },
      "adminRemoveWhitelist(address)": {
        "details": "Removes an NFT contract address from the whitelist, preventing tokens from this contract from being used for minting in the AdFrame contract. Only the owner of the AdFrame contract can remove contracts from the whitelist. Emits a `ContractRemovedFromWhitelist` event upon successfully removing a contract from the whitelist. Requirements: - The caller must be the owner of the AdFrame contract.",
        "params": {
          "_contract": "The address of the NFT contract to remove from the whitelist."
        }
      },
      "adminSetBillboardMessage(string,string)": {
        "details": "Function to allow the owner to change the billboard message. Message is optional, otherwise it defaults to start message. In case of spam or harmful messages!",
        "params": {
          "_newBillboardMessage": "The new message to set on the billboard.",
          "_newBillboardURL": "The new URL to set on the billboard."
        }
      },
      "approve(address,uint256)": {
        "details": "See {IERC721-approve}."
      },
      "balanceOf(address)": {
        "details": "See {IERC721-balanceOf}."
      },
      "burn(uint256)": {
        "details": "allows user to burn the billboard. Adjusts the activeTokens count so accurate shares are recorded for future epochs.",
        "params": {
          "tokenId": "is token to be burned"
        }
      },
      "claimShare(uint256,uint256)": {
        "details": "Allows an NFT owner to claim their share of the revenue generated from the billboard advertisement for a specific epoch. This function checks that the caller is the owner of the NFT, the epoch number is valid, and the share for the given epoch has not already been claimed. It then calculates the amount owed based on the revenue generated during the specified epoch and transfers this amount to the NFT owner. Requirements: - The caller must be the owner of the NFT. - The epoch number must be valid and not exceed the current epoch. - The share for the specified epoch and NFT ID must not have already been claimed. - The NFT ID must be eligible for the specified epoch (i.e., it was minted before the epoch ended). - The contract must have a sufficient balance to cover the withdrawal. Emits a `WithdrawalSuccessful` event upon a successful withdrawal.",
        "params": {
          "epochNumber": "The epoch number for which the share is being claimed.",
          "nftId": "The ID of the NFT for which the share is being claimed."
        }
      },
      "claimShareAll(uint256)": {
        "details": "Allows an NFT owner to claim their share of the revenue generated from the billboard advertisement across all epochs in which they have not yet claimed their share. This function iterates through all epochs, checks if the NFT owner has already claimed their share for each epoch, and if not, calculates and accumulates the amount owed to them. Once the total share is calculated, it transfers the accumulated amount to the NFT owner in a single transaction. This function ensures that NFT owners can conveniently claim their revenue share from multiple epochs in one transaction, reducing transaction costs and complexity. Requirements: - The caller must be the owner of the NFT. - The NFT must be eligible for revenue share in the epochs being claimed (i.e., it was minted before the epoch ended). - The contract must have a sufficient balance to cover the total share being claimed. - The NFT must not have already withdrawn the amount! Emits a `WithdrawalSuccessful` event for each epoch from which a share is successfully claimed.",
        "params": {
          "nftId": "The ID of the NFT for which the share is being claimed across all eligible epochs."
        }
      },
      "getAdjustedPrice()": {
        "details": "Calculates the adjusted price for setting a new billboard message. The adjusted price decreases over time since the last update but cannot fall below the base price. This ensures the price dynamically reflects demand while maintaining a minimum value.",
        "returns": {
          "_0": "uint256 The adjusted price for setting a new billboard message."
        }
      },
      "getApproved(uint256)": {
        "details": "See {IERC721-getApproved}."
      },
      "isApprovedForAll(address,address)": {
        "details": "See {IERC721-isApprovedForAll}."
      },
      "mintNFT(address,uint256)": {
        "details": "Mints a new NFT to the caller's address if they do not already own one.  This function is designed to ensure that each address can only mint one NFT to participate in the billboard advertisement revenue sharing.  Upon minting, the NFT's token ID is incremented, and the active token count is updated to reflect the new total.  Additionally, the price for the next billboard message update is increased by the specified increase rate to adjust for the new NFT minted. Requirements: - The caller must not already own an NFT minted by this contract to prevent Sybil attacks and ensure fair distribution. - The NFT contract must be whitelisted to mint NFTs from. - The token ID must not have already been used to mint an NFT. - The caller must own the token in the specified NFT contract. - The token must not have already been used to mint an NFT. Emits a `Transfer` event as defined in the ERC721 standard, indicating the minting of a new NFT to the caller's address. Note: The function includes a safeguard against Sybil attacks by limiting minting to one NFT per address. However, this measure may not fully prevent determined attackers from circumventing the restriction through the use of multiple addresses."
      },
      "name()": {
        "details": "See {IERC721Metadata-name}."
      },
      "owner()": {
        "details": "Returns the address of the current owner."
      },
      "ownerOf(uint256)": {
        "details": "See {IERC721-ownerOf}."
      },
      "renounceOwnership()": {
        "details": "Leaves the contract without owner. It will not be possible to call `onlyOwner` functions anymore. Can only be called by the current owner. NOTE: Renouncing ownership will leave the contract without an owner, thereby removing any functionality that is only available to the owner."
      },
      "safeTransferFrom(address,address,uint256)": {
        "details": "See {IERC721-safeTransferFrom}."
      },
      "safeTransferFrom(address,address,uint256,bytes)": {
        "details": "See {IERC721-safeTransferFrom}."
      },
      "setApprovalForAll(address,bool)": {
        "details": "See {IERC721-setApprovalForAll}."
      },
      "setBasePrice(uint256)": {
        "details": "Allows the admin to set a new base price (e.g, lowest possible price to charge for the adspace)",
        "params": {
          "_newBasePrice": "The new base price to be set."
        }
      },
      "setBillboard(string,string)": {
        "details": "Function that allows anyone to change the state variable \"billboard\" and billboardURL of the contract.",
        "params": {
          "_newBillboardMessage": "(string memory) - new billboard message to save on the contract",
          "_newBillboardURL": "(string memory) - not required"
        }
      },
      "setDecreaseRate(uint256)": {
        "details": "Allows the admin to set a new decrease rate. Decrease rate is applied every block to AdjustedPrice.",
        "params": {
          "_newDecreaseRate": "The new decrease rate to be set."
        }
      },
      "setIncreaseRate(uint256)": {
        "details": "Allows the admin to set a new increase rate. Increase rate is applied upon updateBillboard and mintNFT",
        "params": {
          "_newIncreaseRate": "The new increase rate to be set."
        }
      },
      "supportsInterface(bytes4)": {
        "details": "See {IERC165-supportsInterface}."
      },
      "symbol()": {
        "details": "See {IERC721Metadata-symbol}."
      },
      "tokenByIndex(uint256)": {
        "details": "See {IERC721Enumerable-tokenByIndex}."
      },
      "tokenOfOwnerByIndex(address,uint256)": {
        "details": "See {IERC721Enumerable-tokenOfOwnerByIndex}."
      },
      "tokenURI(uint256)": {
        "details": "Returns the Uniform Resource Identifier (URI) for `tokenId` token. Reverts if the token ID does not exist. May return an empty string. This function is a required override of ERC721's `tokenURI` function.",
        "params": {
          "tokenId": "uint256 ID of the token to query."
        },
        "returns": {
          "_0": "string memory URI for the token."
        }
      },
      "totalSupply()": {
        "details": "See {IERC721Enumerable-totalSupply}."
      },
      "transferFrom(address,address,uint256)": {
        "details": "See {IERC721-transferFrom}."
      },
      "transferOwnership(address)": {
        "details": "Transfers ownership of the contract to a new account (`newOwner`). Can only be called by the current owner."
      },
      "withdrawProtocolFees()": {
        "details": "Withdraws the accumulated protocol fees to the contract owner's address. This function can only be called by the contract owner. It transfers the total accumulated protocol fees to the owner and resets the protocol revenue to zero.  Emits a `Transfer` event if the transfer is successful. Requirements: - Can only be called by the contract owner."
      }
    },
    "version": 1
  },
  "userdoc": {
    "kind": "user",
    "methods": {
      "withdrawProtocolFees()": {
        "notice": "Use this function to withdraw the accumulated protocol fees to the owner's address."
      }
    },
    "notice": "A simple billboard smartcontract, where a message state variable is for sale! Folks who mint the NFT  opt in to be advertised to, and so are entitled to a cut from the ad revenue users will see ads in their wallet, embedded in their app, or posted on social media ike Warpcast  TODOS for V2  - Figure out refund for ads that are replaced too quickly that doesn't encourage too much sybling  - \t- Idea: 10% Protocol Fee paid regardless, small window (1 hour?)  - Figure out some friction for Sybiling audience growth",
    "version": 1
  },
  "storageLayout": {
    "storage": [
      {
        "astId": 138,
        "contract": "contracts/AdFrame.sol:AdFrame",
        "label": "_name",
        "offset": 0,
        "slot": "0",
        "type": "t_string_storage"
      },
      {
        "astId": 140,
        "contract": "contracts/AdFrame.sol:AdFrame",
        "label": "_symbol",
        "offset": 0,
        "slot": "1",
        "type": "t_string_storage"
      },
      {
        "astId": 144,
        "contract": "contracts/AdFrame.sol:AdFrame",
        "label": "_owners",
        "offset": 0,
        "slot": "2",
        "type": "t_mapping(t_uint256,t_address)"
      },
      {
        "astId": 148,
        "contract": "contracts/AdFrame.sol:AdFrame",
        "label": "_balances",
        "offset": 0,
        "slot": "3",
        "type": "t_mapping(t_address,t_uint256)"
      },
      {
        "astId": 152,
        "contract": "contracts/AdFrame.sol:AdFrame",
        "label": "_tokenApprovals",
        "offset": 0,
        "slot": "4",
        "type": "t_mapping(t_uint256,t_address)"
      },
      {
        "astId": 158,
        "contract": "contracts/AdFrame.sol:AdFrame",
        "label": "_operatorApprovals",
        "offset": 0,
        "slot": "5",
        "type": "t_mapping(t_address,t_mapping(t_address,t_bool))"
      },
      {
        "astId": 1188,
        "contract": "contracts/AdFrame.sol:AdFrame",
        "label": "_ownedTokens",
        "offset": 0,
        "slot": "6",
        "type": "t_mapping(t_address,t_mapping(t_uint256,t_uint256))"
      },
      {
        "astId": 1192,
        "contract": "contracts/AdFrame.sol:AdFrame",
        "label": "_ownedTokensIndex",
        "offset": 0,
        "slot": "7",
        "type": "t_mapping(t_uint256,t_uint256)"
      },
      {
        "astId": 1195,
        "contract": "contracts/AdFrame.sol:AdFrame",
        "label": "_allTokens",
        "offset": 0,
        "slot": "8",
        "type": "t_array(t_uint256)dyn_storage"
      },
      {
        "astId": 1199,
        "contract": "contracts/AdFrame.sol:AdFrame",
        "label": "_allTokensIndex",
        "offset": 0,
        "slot": "9",
        "type": "t_mapping(t_uint256,t_uint256)"
      },
      {
        "astId": 7,
        "contract": "contracts/AdFrame.sol:AdFrame",
        "label": "_owner",
        "offset": 0,
        "slot": "10",
        "type": "t_address"
      },
      {
        "astId": 3102,
        "contract": "contracts/AdFrame.sol:AdFrame",
        "label": "protocolFee",
        "offset": 0,
        "slot": "11",
        "type": "t_uint256"
      },
      {
        "astId": 3105,
        "contract": "contracts/AdFrame.sol:AdFrame",
        "label": "protocolRevenue",
        "offset": 0,
        "slot": "12",
        "type": "t_uint256"
      },
      {
        "astId": 3115,
        "contract": "contracts/AdFrame.sol:AdFrame",
        "label": "epochs",
        "offset": 0,
        "slot": "13",
        "type": "t_mapping(t_uint256,t_struct(epochData)3110_storage)"
      },
      {
        "astId": 3118,
        "contract": "contracts/AdFrame.sol:AdFrame",
        "label": "currentEpoch",
        "offset": 0,
        "slot": "14",
        "type": "t_uint256"
      },
      {
        "astId": 3124,
        "contract": "contracts/AdFrame.sol:AdFrame",
        "label": "hasWithdrawn",
        "offset": 0,
        "slot": "15",
        "type": "t_mapping(t_uint256,t_mapping(t_uint256,t_bool))"
      },
      {
        "astId": 3131,
        "contract": "contracts/AdFrame.sol:AdFrame",
        "label": "_tokenIds",
        "offset": 0,
        "slot": "16",
        "type": "t_struct(Counter)1943_storage"
      },
      {
        "astId": 3134,
        "contract": "contracts/AdFrame.sol:AdFrame",
        "label": "_activeTokens",
        "offset": 0,
        "slot": "17",
        "type": "t_struct(Counter)1943_storage"
      },
      {
        "astId": 3136,
        "contract": "contracts/AdFrame.sol:AdFrame",
        "label": "_commonURI",
        "offset": 0,
        "slot": "18",
        "type": "t_string_storage"
      },
      {
        "astId": 3140,
        "contract": "contracts/AdFrame.sol:AdFrame",
        "label": "_tokenURIs",
        "offset": 0,
        "slot": "19",
        "type": "t_mapping(t_uint256,t_string_storage)"
      },
      {
        "astId": 3144,
        "contract": "contracts/AdFrame.sol:AdFrame",
        "label": "whitelistedNFTContracts",
        "offset": 0,
        "slot": "20",
        "type": "t_mapping(t_address,t_bool)"
      },
      {
        "astId": 3150,
        "contract": "contracts/AdFrame.sol:AdFrame",
        "label": "usedTokens",
        "offset": 0,
        "slot": "21",
        "type": "t_mapping(t_address,t_mapping(t_uint256,t_bool))"
      },
      {
        "astId": 3155,
        "contract": "contracts/AdFrame.sol:AdFrame",
        "label": "nftIdWithdraws",
        "offset": 0,
        "slot": "22",
        "type": "t_mapping(t_uint256,t_array(t_uint256)dyn_storage)"
      },
      {
        "astId": 3158,
        "contract": "contracts/AdFrame.sol:AdFrame",
        "label": "billboard",
        "offset": 0,
        "slot": "23",
        "type": "t_string_storage"
      },
      {
        "astId": 3161,
        "contract": "contracts/AdFrame.sol:AdFrame",
        "label": "billboardURL",
        "offset": 0,
        "slot": "24",
        "type": "t_string_storage"
      },
      {
        "astId": 3164,
        "contract": "contracts/AdFrame.sol:AdFrame",
        "label": "basePrice",
        "offset": 0,
        "slot": "25",
        "type": "t_uint256"
      },
      {
        "astId": 3167,
        "contract": "contracts/AdFrame.sol:AdFrame",
        "label": "lastPrice",
        "offset": 0,
        "slot": "26",
        "type": "t_uint256"
      },
      {
        "astId": 3169,
        "contract": "contracts/AdFrame.sol:AdFrame",
        "label": "lastUpdateTime",
        "offset": 0,
        "slot": "27",
        "type": "t_uint256"
      },
      {
        "astId": 3172,
        "contract": "contracts/AdFrame.sol:AdFrame",
        "label": "decreaseRate",
        "offset": 0,
        "slot": "28",
        "type": "t_uint256"
      },
      {
        "astId": 3175,
        "contract": "contracts/AdFrame.sol:AdFrame",
        "label": "increaseRate",
        "offset": 0,
        "slot": "29",
        "type": "t_uint256"
      }
    ],
    "types": {
      "t_address": {
        "encoding": "inplace",
        "label": "address",
        "numberOfBytes": "20"
      },
      "t_array(t_uint256)dyn_storage": {
        "base": "t_uint256",
        "encoding": "dynamic_array",
        "label": "uint256[]",
        "numberOfBytes": "32"
      },
      "t_bool": {
        "encoding": "inplace",
        "label": "bool",
        "numberOfBytes": "1"
      },
      "t_mapping(t_address,t_bool)": {
        "encoding": "mapping",
        "key": "t_address",
        "label": "mapping(address => bool)",
        "numberOfBytes": "32",
        "value": "t_bool"
      },
      "t_mapping(t_address,t_mapping(t_address,t_bool))": {
        "encoding": "mapping",
        "key": "t_address",
        "label": "mapping(address => mapping(address => bool))",
        "numberOfBytes": "32",
        "value": "t_mapping(t_address,t_bool)"
      },
      "t_mapping(t_address,t_mapping(t_uint256,t_bool))": {
        "encoding": "mapping",
        "key": "t_address",
        "label": "mapping(address => mapping(uint256 => bool))",
        "numberOfBytes": "32",
        "value": "t_mapping(t_uint256,t_bool)"
      },
      "t_mapping(t_address,t_mapping(t_uint256,t_uint256))": {
        "encoding": "mapping",
        "key": "t_address",
        "label": "mapping(address => mapping(uint256 => uint256))",
        "numberOfBytes": "32",
        "value": "t_mapping(t_uint256,t_uint256)"
      },
      "t_mapping(t_address,t_uint256)": {
        "encoding": "mapping",
        "key": "t_address",
        "label": "mapping(address => uint256)",
        "numberOfBytes": "32",
        "value": "t_uint256"
      },
      "t_mapping(t_uint256,t_address)": {
        "encoding": "mapping",
        "key": "t_uint256",
        "label": "mapping(uint256 => address)",
        "numberOfBytes": "32",
        "value": "t_address"
      },
      "t_mapping(t_uint256,t_array(t_uint256)dyn_storage)": {
        "encoding": "mapping",
        "key": "t_uint256",
        "label": "mapping(uint256 => uint256[])",
        "numberOfBytes": "32",
        "value": "t_array(t_uint256)dyn_storage"
      },
      "t_mapping(t_uint256,t_bool)": {
        "encoding": "mapping",
        "key": "t_uint256",
        "label": "mapping(uint256 => bool)",
        "numberOfBytes": "32",
        "value": "t_bool"
      },
      "t_mapping(t_uint256,t_mapping(t_uint256,t_bool))": {
        "encoding": "mapping",
        "key": "t_uint256",
        "label": "mapping(uint256 => mapping(uint256 => bool))",
        "numberOfBytes": "32",
        "value": "t_mapping(t_uint256,t_bool)"
      },
      "t_mapping(t_uint256,t_string_storage)": {
        "encoding": "mapping",
        "key": "t_uint256",
        "label": "mapping(uint256 => string)",
        "numberOfBytes": "32",
        "value": "t_string_storage"
      },
      "t_mapping(t_uint256,t_struct(epochData)3110_storage)": {
        "encoding": "mapping",
        "key": "t_uint256",
        "label": "mapping(uint256 => struct AdFrame.epochData)",
        "numberOfBytes": "32",
        "value": "t_struct(epochData)3110_storage"
      },
      "t_mapping(t_uint256,t_uint256)": {
        "encoding": "mapping",
        "key": "t_uint256",
        "label": "mapping(uint256 => uint256)",
        "numberOfBytes": "32",
        "value": "t_uint256"
      },
      "t_string_storage": {
        "encoding": "bytes",
        "label": "string",
        "numberOfBytes": "32"
      },
      "t_struct(Counter)1943_storage": {
        "encoding": "inplace",
        "label": "struct Counters.Counter",
        "members": [
          {
            "astId": 1942,
            "contract": "contracts/AdFrame.sol:AdFrame",
            "label": "_value",
            "offset": 0,
            "slot": "0",
            "type": "t_uint256"
          }
        ],
        "numberOfBytes": "32"
      },
      "t_struct(epochData)3110_storage": {
        "encoding": "inplace",
        "label": "struct AdFrame.epochData",
        "members": [
          {
            "astId": 3107,
            "contract": "contracts/AdFrame.sol:AdFrame",
            "label": "nftsMinted",
            "offset": 0,
            "slot": "0",
            "type": "t_uint256"
          },
          {
            "astId": 3109,
            "contract": "contracts/AdFrame.sol:AdFrame",
            "label": "amtOwed",
            "offset": 0,
            "slot": "1",
            "type": "t_uint256"
          }
        ],
        "numberOfBytes": "64"
      },
      "t_uint256": {
        "encoding": "inplace",
        "label": "uint256",
        "numberOfBytes": "32"
      }
    }
  }
}