{
  "address": "0x7580b8a27C4616becE43670c614748444a5E000F",
  "abi": [
    {
      "inputs": [
        {
          "internalType": "string",
          "name": "initialURI",
          "type": "string"
        }
      ],
      "stateMutability": "nonpayable",
      "type": "constructor"
    },
    {
      "anonymous": false,
      "inputs": [
        {
          "indexed": true,
          "internalType": "address",
          "name": "owner",
          "type": "address"
        },
        {
          "indexed": true,
          "internalType": "address",
          "name": "approved",
          "type": "address"
        },
        {
          "indexed": true,
          "internalType": "uint256",
          "name": "tokenId",
          "type": "uint256"
        }
      ],
      "name": "Approval",
      "type": "event"
    },
    {
      "anonymous": false,
      "inputs": [
        {
          "indexed": true,
          "internalType": "address",
          "name": "owner",
          "type": "address"
        },
        {
          "indexed": true,
          "internalType": "address",
          "name": "operator",
          "type": "address"
        },
        {
          "indexed": false,
          "internalType": "bool",
          "name": "approved",
          "type": "bool"
        }
      ],
      "name": "ApprovalForAll",
      "type": "event"
    },
    {
      "anonymous": false,
      "inputs": [
        {
          "indexed": true,
          "internalType": "address",
          "name": "billboardSetter",
          "type": "address"
        },
        {
          "indexed": false,
          "internalType": "string",
          "name": "newBillboard",
          "type": "string"
        },
        {
          "indexed": false,
          "internalType": "string",
          "name": "newBillboardURL",
          "type": "string"
        },
        {
          "indexed": false,
          "internalType": "uint256",
          "name": "value",
          "type": "uint256"
        }
      ],
      "name": "BillboardChange",
      "type": "event"
    },
    {
      "anonymous": false,
      "inputs": [
        {
          "indexed": true,
          "internalType": "uint256",
          "name": "epochIndex",
          "type": "uint256"
        },
        {
          "indexed": false,
          "internalType": "uint256",
          "name": "nftsMinted",
          "type": "uint256"
        },
        {
          "indexed": false,
          "internalType": "uint256",
          "name": "amtOwed",
          "type": "uint256"
        }
      ],
      "name": "EpochUpdated",
      "type": "event"
    },
    {
      "anonymous": false,
      "inputs": [
        {
          "indexed": true,
          "internalType": "address",
          "name": "previousOwner",
          "type": "address"
        },
        {
          "indexed": true,
          "internalType": "address",
          "name": "newOwner",
          "type": "address"
        }
      ],
      "name": "OwnershipTransferred",
      "type": "event"
    },
    {
      "anonymous": false,
      "inputs": [
        {
          "indexed": true,
          "internalType": "address",
          "name": "from",
          "type": "address"
        },
        {
          "indexed": true,
          "internalType": "address",
          "name": "to",
          "type": "address"
        },
        {
          "indexed": true,
          "internalType": "uint256",
          "name": "tokenId",
          "type": "uint256"
        }
      ],
      "name": "Transfer",
      "type": "event"
    },
    {
      "anonymous": false,
      "inputs": [
        {
          "indexed": true,
          "internalType": "uint256",
          "name": "epochNumber",
          "type": "uint256"
        },
        {
          "indexed": true,
          "internalType": "uint256",
          "name": "nftId",
          "type": "uint256"
        },
        {
          "indexed": false,
          "internalType": "uint256",
          "name": "amountOwed",
          "type": "uint256"
        }
      ],
      "name": "WithdrawalSuccessful",
      "type": "event"
    },
    {
      "inputs": [],
      "name": "_tokenIds",
      "outputs": [
        {
          "internalType": "uint256",
          "name": "_value",
          "type": "uint256"
        }
      ],
      "stateMutability": "view",
      "type": "function"
    },
    {
      "inputs": [
        {
          "internalType": "string",
          "name": "_newBillboardMessage",
          "type": "string"
        },
        {
          "internalType": "string",
          "name": "_newBillboardURL",
          "type": "string"
        }
      ],
      "name": "adminSetBillboardMessage",
      "outputs": [],
      "stateMutability": "nonpayable",
      "type": "function"
    },
    {
      "inputs": [
        {
          "internalType": "uint256",
          "name": "_newFeePercent",
          "type": "uint256"
        }
      ],
      "name": "adminSetProtocolFee",
      "outputs": [],
      "stateMutability": "nonpayable",
      "type": "function"
    },
    {
      "inputs": [
        {
          "internalType": "address",
          "name": "to",
          "type": "address"
        },
        {
          "internalType": "uint256",
          "name": "tokenId",
          "type": "uint256"
        }
      ],
      "name": "approve",
      "outputs": [],
      "stateMutability": "nonpayable",
      "type": "function"
    },
    {
      "inputs": [
        {
          "internalType": "address",
          "name": "owner",
          "type": "address"
        }
      ],
      "name": "balanceOf",
      "outputs": [
        {
          "internalType": "uint256",
          "name": "",
          "type": "uint256"
        }
      ],
      "stateMutability": "view",
      "type": "function"
    },
    {
      "inputs": [],
      "name": "basePrice",
      "outputs": [
        {
          "internalType": "uint256",
          "name": "",
          "type": "uint256"
        }
      ],
      "stateMutability": "view",
      "type": "function"
    },
    {
      "inputs": [],
      "name": "billboard",
      "outputs": [
        {
          "internalType": "string",
          "name": "",
          "type": "string"
        }
      ],
      "stateMutability": "view",
      "type": "function"
    },
    {
      "inputs": [],
      "name": "billboardURL",
      "outputs": [
        {
          "internalType": "string",
          "name": "",
          "type": "string"
        }
      ],
      "stateMutability": "view",
      "type": "function"
    },
    {
      "inputs": [
        {
          "internalType": "uint256",
          "name": "tokenId",
          "type": "uint256"
        }
      ],
      "name": "burn",
      "outputs": [],
      "stateMutability": "nonpayable",
      "type": "function"
    },
    {
      "inputs": [
        {
          "internalType": "uint256",
          "name": "epochNumber",
          "type": "uint256"
        },
        {
          "internalType": "uint256",
          "name": "nftId",
          "type": "uint256"
        }
      ],
      "name": "claimShare",
      "outputs": [],
      "stateMutability": "nonpayable",
      "type": "function"
    },
    {
      "inputs": [
        {
          "internalType": "uint256",
          "name": "nftId",
          "type": "uint256"
        }
      ],
      "name": "claimShareAll",
      "outputs": [],
      "stateMutability": "nonpayable",
      "type": "function"
    },
    {
      "inputs": [],
      "name": "currentEpoch",
      "outputs": [
        {
          "internalType": "uint256",
          "name": "",
          "type": "uint256"
        }
      ],
      "stateMutability": "view",
      "type": "function"
    },
    {
      "inputs": [],
      "name": "decreaseRate",
      "outputs": [
        {
          "internalType": "uint256",
          "name": "",
          "type": "uint256"
        }
      ],
      "stateMutability": "view",
      "type": "function"
    },
    {
      "inputs": [
        {
          "internalType": "uint256",
          "name": "",
          "type": "uint256"
        }
      ],
      "name": "epochs",
      "outputs": [
        {
          "internalType": "uint256",
          "name": "nftsMinted",
          "type": "uint256"
        },
        {
          "internalType": "uint256",
          "name": "amtOwed",
          "type": "uint256"
        }
      ],
      "stateMutability": "view",
      "type": "function"
    },
    {
      "inputs": [],
      "name": "getAdjustedPrice",
      "outputs": [
        {
          "internalType": "uint256",
          "name": "",
          "type": "uint256"
        }
      ],
      "stateMutability": "view",
      "type": "function"
    },
    {
      "inputs": [
        {
          "internalType": "uint256",
          "name": "tokenId",
          "type": "uint256"
        }
      ],
      "name": "getApproved",
      "outputs": [
        {
          "internalType": "address",
          "name": "",
          "type": "address"
        }
      ],
      "stateMutability": "view",
      "type": "function"
    },
    {
      "inputs": [],
      "name": "increaseRate",
      "outputs": [
        {
          "internalType": "uint256",
          "name": "",
          "type": "uint256"
        }
      ],
      "stateMutability": "view",
      "type": "function"
    },
    {
      "inputs": [
        {
          "internalType": "address",
          "name": "owner",
          "type": "address"
        },
        {
          "internalType": "address",
          "name": "operator",
          "type": "address"
        }
      ],
      "name": "isApprovedForAll",
      "outputs": [
        {
          "internalType": "bool",
          "name": "",
          "type": "bool"
        }
      ],
      "stateMutability": "view",
      "type": "function"
    },
    {
      "inputs": [],
      "name": "lastPrice",
      "outputs": [
        {
          "internalType": "uint256",
          "name": "",
          "type": "uint256"
        }
      ],
      "stateMutability": "view",
      "type": "function"
    },
    {
      "inputs": [],
      "name": "lastUpdateTime",
      "outputs": [
        {
          "internalType": "uint256",
          "name": "",
          "type": "uint256"
        }
      ],
      "stateMutability": "view",
      "type": "function"
    },
    {
      "inputs": [],
      "name": "mintNFT",
      "outputs": [],
      "stateMutability": "nonpayable",
      "type": "function"
    },
    {
      "inputs": [],
      "name": "name",
      "outputs": [
        {
          "internalType": "string",
          "name": "",
          "type": "string"
        }
      ],
      "stateMutability": "view",
      "type": "function"
    },
    {
      "inputs": [],
      "name": "owner",
      "outputs": [
        {
          "internalType": "address",
          "name": "",
          "type": "address"
        }
      ],
      "stateMutability": "view",
      "type": "function"
    },
    {
      "inputs": [
        {
          "internalType": "uint256",
          "name": "tokenId",
          "type": "uint256"
        }
      ],
      "name": "ownerOf",
      "outputs": [
        {
          "internalType": "address",
          "name": "",
          "type": "address"
        }
      ],
      "stateMutability": "view",
      "type": "function"
    },
    {
      "inputs": [],
      "name": "protocolFee",
      "outputs": [
        {
          "internalType": "uint256",
          "name": "",
          "type": "uint256"
        }
      ],
      "stateMutability": "view",
      "type": "function"
    },
    {
      "inputs": [],
      "name": "protocolRevenue",
      "outputs": [
        {
          "internalType": "uint256",
          "name": "",
          "type": "uint256"
        }
      ],
      "stateMutability": "view",
      "type": "function"
    },
    {
      "inputs": [],
      "name": "renounceOwnership",
      "outputs": [],
      "stateMutability": "nonpayable",
      "type": "function"
    },
    {
      "inputs": [
        {
          "internalType": "address",
          "name": "from",
          "type": "address"
        },
        {
          "internalType": "address",
          "name": "to",
          "type": "address"
        },
        {
          "internalType": "uint256",
          "name": "tokenId",
          "type": "uint256"
        }
      ],
      "name": "safeTransferFrom",
      "outputs": [],
      "stateMutability": "nonpayable",
      "type": "function"
    },
    {
      "inputs": [
        {
          "internalType": "address",
          "name": "from",
          "type": "address"
        },
        {
          "internalType": "address",
          "name": "to",
          "type": "address"
        },
        {
          "internalType": "uint256",
          "name": "tokenId",
          "type": "uint256"
        },
        {
          "internalType": "bytes",
          "name": "data",
          "type": "bytes"
        }
      ],
      "name": "safeTransferFrom",
      "outputs": [],
      "stateMutability": "nonpayable",
      "type": "function"
    },
    {
      "inputs": [
        {
          "internalType": "address",
          "name": "operator",
          "type": "address"
        },
        {
          "internalType": "bool",
          "name": "approved",
          "type": "bool"
        }
      ],
      "name": "setApprovalForAll",
      "outputs": [],
      "stateMutability": "nonpayable",
      "type": "function"
    },
    {
      "inputs": [
        {
          "internalType": "uint256",
          "name": "_newBasePrice",
          "type": "uint256"
        }
      ],
      "name": "setBasePrice",
      "outputs": [],
      "stateMutability": "nonpayable",
      "type": "function"
    },
    {
      "inputs": [
        {
          "internalType": "string",
          "name": "_newBillboardMessage",
          "type": "string"
        },
        {
          "internalType": "string",
          "name": "_newBillboardURL",
          "type": "string"
        }
      ],
      "name": "setBillboard",
      "outputs": [],
      "stateMutability": "payable",
      "type": "function"
    },
    {
      "inputs": [
        {
          "internalType": "string",
          "name": "newURI",
          "type": "string"
        }
      ],
      "name": "setCommonURI",
      "outputs": [],
      "stateMutability": "nonpayable",
      "type": "function"
    },
    {
      "inputs": [
        {
          "internalType": "uint256",
          "name": "_newDecreaseRate",
          "type": "uint256"
        }
      ],
      "name": "setDecreaseRate",
      "outputs": [],
      "stateMutability": "nonpayable",
      "type": "function"
    },
    {
      "inputs": [
        {
          "internalType": "uint256",
          "name": "_newIncreaseRate",
          "type": "uint256"
        }
      ],
      "name": "setIncreaseRate",
      "outputs": [],
      "stateMutability": "nonpayable",
      "type": "function"
    },
    {
      "inputs": [
        {
          "internalType": "bytes4",
          "name": "interfaceId",
          "type": "bytes4"
        }
      ],
      "name": "supportsInterface",
      "outputs": [
        {
          "internalType": "bool",
          "name": "",
          "type": "bool"
        }
      ],
      "stateMutability": "view",
      "type": "function"
    },
    {
      "inputs": [],
      "name": "symbol",
      "outputs": [
        {
          "internalType": "string",
          "name": "",
          "type": "string"
        }
      ],
      "stateMutability": "view",
      "type": "function"
    },
    {
      "inputs": [
        {
          "internalType": "uint256",
          "name": "index",
          "type": "uint256"
        }
      ],
      "name": "tokenByIndex",
      "outputs": [
        {
          "internalType": "uint256",
          "name": "",
          "type": "uint256"
        }
      ],
      "stateMutability": "view",
      "type": "function"
    },
    {
      "inputs": [
        {
          "internalType": "address",
          "name": "owner",
          "type": "address"
        },
        {
          "internalType": "uint256",
          "name": "index",
          "type": "uint256"
        }
      ],
      "name": "tokenOfOwnerByIndex",
      "outputs": [
        {
          "internalType": "uint256",
          "name": "",
          "type": "uint256"
        }
      ],
      "stateMutability": "view",
      "type": "function"
    },
    {
      "inputs": [
        {
          "internalType": "uint256",
          "name": "tokenId",
          "type": "uint256"
        }
      ],
      "name": "tokenURI",
      "outputs": [
        {
          "internalType": "string",
          "name": "",
          "type": "string"
        }
      ],
      "stateMutability": "view",
      "type": "function"
    },
    {
      "inputs": [],
      "name": "totalActiveTokens",
      "outputs": [
        {
          "internalType": "uint256",
          "name": "",
          "type": "uint256"
        }
      ],
      "stateMutability": "view",
      "type": "function"
    },
    {
      "inputs": [],
      "name": "totalSupply",
      "outputs": [
        {
          "internalType": "uint256",
          "name": "",
          "type": "uint256"
        }
      ],
      "stateMutability": "view",
      "type": "function"
    },
    {
      "inputs": [
        {
          "internalType": "address",
          "name": "from",
          "type": "address"
        },
        {
          "internalType": "address",
          "name": "to",
          "type": "address"
        },
        {
          "internalType": "uint256",
          "name": "tokenId",
          "type": "uint256"
        }
      ],
      "name": "transferFrom",
      "outputs": [],
      "stateMutability": "nonpayable",
      "type": "function"
    },
    {
      "inputs": [
        {
          "internalType": "address",
          "name": "newOwner",
          "type": "address"
        }
      ],
      "name": "transferOwnership",
      "outputs": [],
      "stateMutability": "nonpayable",
      "type": "function"
    },
    {
      "inputs": [],
      "name": "withdrawProtocolFees",
      "outputs": [],
      "stateMutability": "nonpayable",
      "type": "function"
    },
    {
      "stateMutability": "payable",
      "type": "receive"
    }
  ],
  "transactionHash": "0x74b5526e7a5410072d2507949b69c711accf11d5eb43c00413b6bd2bbf16c787",
  "args": [
    "adframe.vercel.app/api/nft/"
  ],
  "numDeployments": 1,
  "solcInputHash": "a3ba4aeb71a3bab650c0d57de6af3b47",
  "bytecode": "0x600a600b556000600c819055600e5560c0604052601360809081527f5468697320537061636520666f722053616c650000000000000000000000000060a0526014906200004d90826200027a565b5060408051808201909152601381527f68747470733a2f2f61646672616d652e78797a0000000000000000000000000060208201526015906200009190826200027a565b5065f5904616e000601655601654601755643edd410c00601955650274a48a7800601a55348015620000c257600080fd5b506040516200307038038062003070833981016040819052620000e59162000346565b6040518060400160405280600c81526020016b109a5b1b189bd85c9913919560a21b81525060405180604001604052806005815260200164109093919560da1b81525081600090816200013991906200027a565b5060016200014882826200027a565b505050620001656200015f6200017f60201b60201c565b62000183565b4260185560126200017782826200027a565b50506200041b565b3390565b600a80546001600160a01b038381166001600160a01b0319831681179093556040519116919082907f8be0079c531659141344cd1fd0a4f28419497f9722a3daafe3b4186f6b6457e090600090a35050565b634e487b7160e01b600052604160045260246000fd5b600181811c908216806200020057607f821691505b6020821081036200022157634e487b7160e01b600052602260045260246000fd5b50919050565b601f8211156200027557600081815260208120601f850160051c81016020861015620002505750805b601f850160051c820191505b8181101562000271578281556001016200025c565b5050505b505050565b81516001600160401b03811115620002965762000296620001d5565b620002ae81620002a78454620001eb565b8462000227565b602080601f831160018114620002e65760008415620002cd5750858301515b600019600386901b1c1916600185901b17855562000271565b600085815260208120601f198616915b828110156200031757888601518255948401946001909101908401620002f6565b5085821015620003365787850151600019600388901b60f8161c191681555b5050505050600190811b01905550565b600060208083850312156200035a57600080fd5b82516001600160401b03808211156200037257600080fd5b818501915085601f8301126200038757600080fd5b8151818111156200039c576200039c620001d5565b604051601f8201601f19908116603f01168101908382118183101715620003c757620003c7620001d5565b816040528281528886848701011115620003e057600080fd5b600093505b82841015620004045784840186015181850187015292850192620003e5565b600086848301015280965050505050505092915050565b612c45806200042b6000396000f3fe6080604052600436106102765760003560e01c80636c1265621161014f578063a22cb465116100c1578063c87b56dd1161007a578063c87b56dd1461088b578063c8f33c91146108ab578063de4b3262146108c1578063e985e9c5146108e1578063ea08629b1461092a578063f2fde38b1461093d57600080fd5b8063a22cb465146107bf578063aa46a400146107df578063b0e21e8a146107f6578063b88d4fde1461080c578063c6b61e4c1461082c578063c7876ea41461087557600080fd5b80637b981541116101135780637b981541146107225780638795cccb146107425780638da5cb5b14610757578063959d9fab1461077557806395d89b411461078a57806396d530e21461079f57600080fd5b80636c126562146106a157806370a08231146106c1578063715018a6146106e157806376671808146106f65780637af3816c1461070c57600080fd5b806339059661116101e85780634f13b8b9116101ac5780634f13b8b9146105f75780634f6ccce714610617578063520e65151461063757806355fc98931461064c5780635e17eb331461066c5780636352211e1461068157600080fd5b806339059661146105625780633c168afe1461058257806342842e0e146105a257806342966c68146105c25780634aa4e57d146105e257600080fd5b806314f710fe1161023a57806314f710fe146104cc57806318160ddd146104e157806323b872dd146104f65780632897183d146105165780632a4b122f1461052c5780632f745c591461054257600080fd5b806301ffc9a7146103f7578063053f14da1461042c57806306fdde0314610450578063081812fc14610472578063095ea7b3146104aa57600080fd5b366103f257600034116102be5760405162461bcd60e51b815260206004820152600b60248201526a139bc8115512081cd95b9d60aa1b60448201526064015b60405180910390fd5b60006102c960115490565b90506000811161030c5760405162461bcd60e51b815260206004820152600e60248201526d139bc81391951cc81b5a5b9d195960921b60448201526064016102b5565b60006064600b543461031e91906124be565b61032891906124d5565b905080600c600082825461033c91906124f7565b909155506000905061034e823461250a565b90506001600e600082825461036391906124f7565b909155506000905061037584836124d5565b9050600061038260105490565b6040805180820182528281526020808201868152600e80546000908152600d8452859020935184559051600190930192909255905482518481529182018690529293507f2df6562a84e8230615692a4ab0f0a5ed8c530ddef1234943bc37aa74646bb876910160405180910390a2005b600080fd5b34801561040357600080fd5b50610417610412366004612533565b61095d565b60405190151581526020015b60405180910390f35b34801561043857600080fd5b5061044260175481565b604051908152602001610423565b34801561045c57600080fd5b50610465610988565b6040516104239190612596565b34801561047e57600080fd5b5061049261048d3660046125a9565b610a1a565b6040516001600160a01b039091168152602001610423565b3480156104b657600080fd5b506104ca6104c53660046125de565b610a41565b005b3480156104d857600080fd5b506104ca610b56565b3480156104ed57600080fd5b50600854610442565b34801561050257600080fd5b506104ca610511366004612608565b610bfb565b34801561052257600080fd5b5061044260195481565b34801561053857600080fd5b50610442601a5481565b34801561054e57600080fd5b5061044261055d3660046125de565b610c2c565b34801561056e57600080fd5b506104ca61057d3660046126f0565b610cc2565b34801561058e57600080fd5b506104ca61059d366004612754565b610dbe565b3480156105ae57600080fd5b506104ca6105bd366004612608565b610ff6565b3480156105ce57600080fd5b506104ca6105dd3660046125a9565b611011565b3480156105ee57600080fd5b50610442611087565b34801561060357600080fd5b506104ca6106123660046125a9565b6110d9565b34801561062357600080fd5b506104426106323660046125a9565b611130565b34801561064357600080fd5b506104426111c3565b34801561065857600080fd5b506104ca610667366004612776565b6111d3565b34801561067857600080fd5b506104656111eb565b34801561068d57600080fd5b5061049261069c3660046125a9565b611279565b3480156106ad57600080fd5b506104ca6106bc3660046125a9565b6112d9565b3480156106cd57600080fd5b506104426106dc3660046127ab565b6112e6565b3480156106ed57600080fd5b506104ca61136c565b34801561070257600080fd5b50610442600e5481565b34801561071857600080fd5b50610442600c5481565b34801561072e57600080fd5b506104ca61073d3660046125a9565b611380565b34801561074e57600080fd5b506104ca61151f565b34801561076357600080fd5b50600a546001600160a01b0316610492565b34801561078157600080fd5b506104656115d7565b34801561079657600080fd5b506104656115e4565b3480156107ab57600080fd5b506104ca6107ba3660046125a9565b6115f3565b3480156107cb57600080fd5b506104ca6107da3660046127c6565b611600565b3480156107eb57600080fd5b506010546104429081565b34801561080257600080fd5b50610442600b5481565b34801561081857600080fd5b506104ca610827366004612802565b61160b565b34801561083857600080fd5b506108606108473660046125a9565b600d602052600090815260409020805460019091015482565b60408051928352602083019190915201610423565b34801561088157600080fd5b5061044260165481565b34801561089757600080fd5b506104656108a63660046125a9565b611643565b3480156108b757600080fd5b5061044260185481565b3480156108cd57600080fd5b506104ca6108dc3660046125a9565b611754565b3480156108ed57600080fd5b506104176108fc36600461287e565b6001600160a01b03918216600090815260056020908152604080832093909416825291909152205460ff1690565b6104ca6109383660046126f0565b611761565b34801561094957600080fd5b506104ca6109583660046127ab565b611930565b60006001600160e01b0319821663780e9d6360e01b14806109825750610982826119a6565b92915050565b606060008054610997906128b1565b80601f01602080910402602001604051908101604052809291908181526020018280546109c3906128b1565b8015610a105780601f106109e557610100808354040283529160200191610a10565b820191906000526020600020905b8154815290600101906020018083116109f357829003601f168201915b5050505050905090565b6000610a25826119f6565b506000908152600460205260409020546001600160a01b031690565b6000610a4c82611279565b9050806001600160a01b0316836001600160a01b031603610ab95760405162461bcd60e51b815260206004820152602160248201527f4552433732313a20617070726f76616c20746f2063757272656e74206f776e656044820152603960f91b60648201526084016102b5565b336001600160a01b0382161480610ad55750610ad581336108fc565b610b475760405162461bcd60e51b815260206004820152603d60248201527f4552433732313a20617070726f76652063616c6c6572206973206e6f7420746f60448201527f6b656e206f776e6572206f7220617070726f76656420666f7220616c6c00000060648201526084016102b5565b610b518383611a55565b505050565b610b5f336112e6565b15610bac5760405162461bcd60e51b815260206004820152601b60248201527f4164647265737320616c7265616479206f776e7320616e204e4654000000000060448201526064016102b5565b610bba601080546001019055565b6000610bc560105490565b9050610bd13382611ac3565b610bdf601180546001019055565b601a5460176000828254610bf391906124f7565b909155505050565b610c053382611c5c565b610c215760405162461bcd60e51b81526004016102b5906128eb565b610b51838383611cdb565b6000610c37836112e6565b8210610c995760405162461bcd60e51b815260206004820152602b60248201527f455243373231456e756d657261626c653a206f776e657220696e646578206f7560448201526a74206f6620626f756e647360a81b60648201526084016102b5565b506001600160a01b03919091166000908152600660209081526040808320938352929052205490565b610cca611d23565b8151600003610d10576040805180820190915260138152725468697320537061636520666f722053616c6560681b6020820152601490610d0a9082612986565b50610d1e565b6014610d1c8382612986565b505b8051600003610d6457604080518082019091526013815272343a3a38399d1797b0b2333930b6b2973c3cbd60691b6020820152601590610d5e9082612986565b50610d72565b6015610d708282612986565b505b336001600160a01b03167fc3de0fd922507907f842c767b8f5c8867f70083c0a216ae592befcda1502d9bf601460156000604051610db293929190612ac3565b60405180910390a25050565b33610dc882611279565b6001600160a01b031614610e1e5760405162461bcd60e51b815260206004820152601b60248201527f43616c6c657220646f6573206e6f74206f776e20746865204e4654000000000060448201526064016102b5565b600e54821115610e675760405162461bcd60e51b815260206004820152601460248201527324b73b30b634b21032b837b1b410373ab6b132b960611b60448201526064016102b5565b6000828152600f6020908152604080832084845290915290205460ff1615610ec55760405162461bcd60e51b815260206004820152601160248201527020b63932b0b23c903bb4ba34323930bbb760791b60448201526064016102b5565b6000828152600d602052604090208054821115610f325760405162461bcd60e51b815260206004820152602560248201527f4e4654204944206973206e6f7420656c696769626c6520666f722074686973206044820152640cae0dec6d60db1b60648201526084016102b5565b600181015447811115610f875760405162461bcd60e51b815260206004820152601d60248201527f496e73756666696369656e7420636f6e74726163742062616c616e636500000060448201526064016102b5565b6000848152600f602090815260408083208684529091529020805460ff19166001179055610fb53382611d7d565b82847f625f0d536f64b06e1fc7914e3aa5678fc3ff7127caf393cf5c758af69657208483604051610fe891815260200190565b60405180910390a350505050565b610b518383836040518060200160405280600081525061160b565b3361101b82611279565b6001600160a01b0316146110715760405162461bcd60e51b815260206004820152601d60248201527f43616c6c6572206973206e6f742074686520746f6b656e206f776e657200000060448201526064016102b5565b61107a81611e96565b6110846011611f39565b50565b60008060185442611098919061250a565b90506000601954826110aa91906124be565b905060008160175411156110cd57816017546110c6919061250a565b90506110d2565b506016545b9392505050565b6110e1611d23565b606481111561112b5760405162461bcd60e51b81526020600482015260166024820152754665652063616e6e6f7420657863656564203130302560501b60448201526064016102b5565b600b55565b600061113b60085490565b821061119e5760405162461bcd60e51b815260206004820152602c60248201527f455243373231456e756d657261626c653a20676c6f62616c20696e646578206f60448201526b7574206f6620626f756e647360a01b60648201526084016102b5565b600882815481106111b1576111b1612af9565b90600052602060002001549050919050565b60006111ce60115490565b905090565b6111db611d23565b60126111e78282612986565b5050565b601480546111f8906128b1565b80601f0160208091040260200160405190810160405280929190818152602001828054611224906128b1565b80156112715780601f1061124657610100808354040283529160200191611271565b820191906000526020600020905b81548152906001019060200180831161125457829003601f168201915b505050505081565b6000818152600260205260408120546001600160a01b0316806109825760405162461bcd60e51b8152602060048201526018602482015277115490cdcc8c4e881a5b9d985b1a59081d1bdad95b88125160421b60448201526064016102b5565b6112e1611d23565b601955565b60006001600160a01b0382166113505760405162461bcd60e51b815260206004820152602960248201527f4552433732313a2061646472657373207a65726f206973206e6f7420612076616044820152683634b21037bbb732b960b91b60648201526084016102b5565b506001600160a01b031660009081526003602052604090205490565b611374611d23565b61137e6000611f90565b565b3361138a82611279565b6001600160a01b0316146113e05760405162461bcd60e51b815260206004820152601b60248201527f43616c6c657220646f6573206e6f74206f776e20746865204e4654000000000060448201526064016102b5565b600060015b600e54811161150e576000818152600f6020908152604080832086845290915290205460ff1615801561142657506000818152600d60205260409020548311155b156114fc576000818152600d6020526040902060018101544781111561148e5760405162461bcd60e51b815260206004820152601d60248201527f496e73756666696369656e7420636f6e74726163742062616c616e636500000060448201526064016102b5565b6000838152600f602090815260408083208884529091529020805460ff191660011790556114bc81856124f7565b935084837f625f0d536f64b06e1fc7914e3aa5678fc3ff7127caf393cf5c758af696572084836040516114f191815260200190565b60405180910390a350505b8061150681612b0f565b9150506113e5565b5080156111e7576111e73382611d7d565b611527611d23565b600c805460009182905590611544600a546001600160a01b031690565b6001600160a01b03168260405160006040518083038185875af1925050503d806000811461158e576040519150601f19603f3d011682016040523d82523d6000602084013e611593565b606091505b50509050806111e75760405162461bcd60e51b815260206004820152601060248201526f2a3930b739b332b9103330b4b632b21760811b60448201526064016102b5565b601580546111f8906128b1565b606060018054610997906128b1565b6115fb611d23565b601a55565b6111e7338383611fe2565b6116153383611c5c565b6116315760405162461bcd60e51b81526004016102b5906128eb565b61163d848484846120b0565b50505050565b6000818152600260205260409020546060906001600160a01b03166116c25760405162461bcd60e51b815260206004820152602f60248201527f4552433732314d657461646174613a2055524920717565727920666f72206e6f60448201526e3732bc34b9ba32b73a103a37b5b2b760891b60648201526084016102b5565b601280546116cf906128b1565b80601f01602080910402602001604051908101604052809291908181526020018280546116fb906128b1565b80156117485780601f1061171d57610100808354040283529160200191611748565b820191906000526020600020905b81548152906001019060200180831161172b57829003601f168201915b50505050509050919050565b61175c611d23565b601655565b600061176b611087565b9050803410156117bd5760405162461bcd60e51b815260206004820152601760248201527f496e73756666696369656e742066756e64732073656e7400000000000000000060448201526064016102b5565b60146117c98482612986565b5060156117d68382612986565b50601a546117e490346124f7565b60175542601855600b546000906064906117fe90346124be565b61180891906124d5565b905080600c600082825461181c91906124f7565b909155506000905061182e823461250a565b90506001600e600082825461184391906124f7565b9091555050601154600081156118645761185d82846124d5565b9050611868565b5060005b600061187360105490565b6040805180820182528281526020808201868152600e80546000908152600d8452859020935184559051600190930192909255905482518481529182018690529293507f2df6562a84e8230615692a4ab0f0a5ed8c530ddef1234943bc37aa74646bb876910160405180910390a2336001600160a01b03167fc3de0fd922507907f842c767b8f5c8867f70083c0a216ae592befcda1502d9bf89893460405161191e93929190612b28565b60405180910390a25050505050505050565b611938611d23565b6001600160a01b03811661199d5760405162461bcd60e51b815260206004820152602660248201527f4f776e61626c653a206e6577206f776e657220697320746865207a65726f206160448201526564647265737360d01b60648201526084016102b5565b61108481611f90565b60006001600160e01b031982166380ac58cd60e01b14806119d757506001600160e01b03198216635b5e139f60e01b145b8061098257506301ffc9a760e01b6001600160e01b0319831614610982565b6000818152600260205260409020546001600160a01b03166110845760405162461bcd60e51b8152602060048201526018602482015277115490cdcc8c4e881a5b9d985b1a59081d1bdad95b88125160421b60448201526064016102b5565b600081815260046020526040902080546001600160a01b0319166001600160a01b0384169081179091558190611a8a82611279565b6001600160a01b03167f8c5be1e5ebec7d5bd14f71427d1e84f3dd0314c0f7b2291e5b200ac8c7c3b92560405160405180910390a45050565b6001600160a01b038216611b195760405162461bcd60e51b815260206004820181905260248201527f4552433732313a206d696e7420746f20746865207a65726f206164647265737360448201526064016102b5565b6000818152600260205260409020546001600160a01b031615611b7e5760405162461bcd60e51b815260206004820152601c60248201527f4552433732313a20746f6b656e20616c7265616479206d696e7465640000000060448201526064016102b5565b611b8c6000838360016120e3565b6000818152600260205260409020546001600160a01b031615611bf15760405162461bcd60e51b815260206004820152601c60248201527f4552433732313a20746f6b656e20616c7265616479206d696e7465640000000060448201526064016102b5565b6001600160a01b038216600081815260036020908152604080832080546001019055848352600290915280822080546001600160a01b0319168417905551839291907fddf252ad1be2c89b69c2b068fc378daa952ba7f163c4a11628f55a4df523b3ef908290a45050565b600080611c6883611279565b9050806001600160a01b0316846001600160a01b03161480611caf57506001600160a01b0380821660009081526005602090815260408083209388168352929052205460ff165b80611cd35750836001600160a01b0316611cc884610a1a565b6001600160a01b0316145b949350505050565b60405162461bcd60e51b815260206004820152601960248201527f4e46547320617265206e6f6e2d7472616e7366657261626c650000000000000060448201526064016102b5565b600a546001600160a01b0316331461137e5760405162461bcd60e51b815260206004820181905260248201527f4f776e61626c653a2063616c6c6572206973206e6f7420746865206f776e657260448201526064016102b5565b80471015611dcd5760405162461bcd60e51b815260206004820152601d60248201527f416464726573733a20696e73756666696369656e742062616c616e636500000060448201526064016102b5565b6000826001600160a01b03168260405160006040518083038185875af1925050503d8060008114611e1a576040519150601f19603f3d011682016040523d82523d6000602084013e611e1f565b606091505b5050905080610b515760405162461bcd60e51b815260206004820152603a60248201527f416464726573733a20756e61626c6520746f2073656e642076616c75652c207260448201527f6563697069656e74206d6179206861766520726576657274656400000000000060648201526084016102b5565b6000611ea182611279565b9050611eb18160008460016120e3565b611eba82611279565b600083815260046020908152604080832080546001600160a01b03199081169091556001600160a01b0385168085526003845282852080546000190190558785526002909352818420805490911690555192935084927fddf252ad1be2c89b69c2b068fc378daa952ba7f163c4a11628f55a4df523b3ef908390a45050565b805480611f885760405162461bcd60e51b815260206004820152601b60248201527f436f756e7465723a2064656372656d656e74206f766572666c6f77000000000060448201526064016102b5565b600019019055565b600a80546001600160a01b038381166001600160a01b0319831681179093556040519116919082907f8be0079c531659141344cd1fd0a4f28419497f9722a3daafe3b4186f6b6457e090600090a35050565b816001600160a01b0316836001600160a01b0316036120435760405162461bcd60e51b815260206004820152601960248201527f4552433732313a20617070726f766520746f2063616c6c65720000000000000060448201526064016102b5565b6001600160a01b03838116600081815260056020908152604080832094871680845294825291829020805460ff191686151590811790915591519182527f17307eab39ab6107e8899845ad3d59bd9653f200f220920489ca2b5937696c31910160405180910390a3505050565b6120bb848484611cdb565b6120c784848484612217565b61163d5760405162461bcd60e51b81526004016102b590612b4d565b60018111156121525760405162461bcd60e51b815260206004820152603560248201527f455243373231456e756d657261626c653a20636f6e7365637574697665207472604482015274185b9cd9995c9cc81b9bdd081cdd5c1c1bdc9d1959605a1b60648201526084016102b5565b816001600160a01b0385166121ae576121a981600880546000838152600960205260408120829055600182018355919091527ff3f7a9fe364faab93b216da50a3214154f22a0a2b415b23a84c8169e8b636ee30155565b6121d1565b836001600160a01b0316856001600160a01b0316146121d1576121d18582612318565b6001600160a01b0384166121ed576121e8816123b5565b612210565b846001600160a01b0316846001600160a01b031614612210576122108482612464565b5050505050565b60006001600160a01b0384163b1561230d57604051630a85bd0160e11b81526001600160a01b0385169063150b7a029061225b903390899088908890600401612b9f565b6020604051808303816000875af1925050508015612296575060408051601f3d908101601f1916820190925261229391810190612bdc565b60015b6122f3573d8080156122c4576040519150601f19603f3d011682016040523d82523d6000602084013e6122c9565b606091505b5080516000036122eb5760405162461bcd60e51b81526004016102b590612b4d565b805181602001fd5b6001600160e01b031916630a85bd0160e11b149050611cd3565b506001949350505050565b60006001612325846112e6565b61232f919061250a565b600083815260076020526040902054909150808214612382576001600160a01b03841660009081526006602090815260408083208584528252808320548484528184208190558352600790915290208190555b5060009182526007602090815260408084208490556001600160a01b039094168352600681528383209183525290812055565b6008546000906123c79060019061250a565b600083815260096020526040812054600880549394509092849081106123ef576123ef612af9565b90600052602060002001549050806008838154811061241057612410612af9565b600091825260208083209091019290925582815260099091526040808220849055858252812055600880548061244857612448612bf9565b6001900381819060005260206000200160009055905550505050565b600061246f836112e6565b6001600160a01b039093166000908152600660209081526040808320868452825280832085905593825260079052919091209190915550565b634e487b7160e01b600052601160045260246000fd5b8082028115828204841417610982576109826124a8565b6000826124f257634e487b7160e01b600052601260045260246000fd5b500490565b80820180821115610982576109826124a8565b81810381811115610982576109826124a8565b6001600160e01b03198116811461108457600080fd5b60006020828403121561254557600080fd5b81356110d28161251d565b6000815180845260005b818110156125765760208185018101518683018201520161255a565b506000602082860101526020601f19601f83011685010191505092915050565b6020815260006110d26020830184612550565b6000602082840312156125bb57600080fd5b5035919050565b80356001600160a01b03811681146125d957600080fd5b919050565b600080604083850312156125f157600080fd5b6125fa836125c2565b946020939093013593505050565b60008060006060848603121561261d57600080fd5b612626846125c2565b9250612634602085016125c2565b9150604084013590509250925092565b634e487b7160e01b600052604160045260246000fd5b600067ffffffffffffffff8084111561267557612675612644565b604051601f8501601f19908116603f0116810190828211818310171561269d5761269d612644565b816040528093508581528686860111156126b657600080fd5b858560208301376000602087830101525050509392505050565b600082601f8301126126e157600080fd5b6110d28383356020850161265a565b6000806040838503121561270357600080fd5b823567ffffffffffffffff8082111561271b57600080fd5b612727868387016126d0565b9350602085013591508082111561273d57600080fd5b5061274a858286016126d0565b9150509250929050565b6000806040838503121561276757600080fd5b50508035926020909101359150565b60006020828403121561278857600080fd5b813567ffffffffffffffff81111561279f57600080fd5b611cd3848285016126d0565b6000602082840312156127bd57600080fd5b6110d2826125c2565b600080604083850312156127d957600080fd5b6127e2836125c2565b9150602083013580151581146127f757600080fd5b809150509250929050565b6000806000806080858703121561281857600080fd5b612821856125c2565b935061282f602086016125c2565b925060408501359150606085013567ffffffffffffffff81111561285257600080fd5b8501601f8101871361286357600080fd5b6128728782356020840161265a565b91505092959194509250565b6000806040838503121561289157600080fd5b61289a836125c2565b91506128a8602084016125c2565b90509250929050565b600181811c908216806128c557607f821691505b6020821081036128e557634e487b7160e01b600052602260045260246000fd5b50919050565b6020808252602d908201527f4552433732313a2063616c6c6572206973206e6f7420746f6b656e206f776e6560408201526c1c881bdc88185c1c1c9bdd9959609a1b606082015260800190565b601f821115610b5157600081815260208120601f850160051c8101602086101561295f5750805b601f850160051c820191505b8181101561297e5782815560010161296b565b505050505050565b815167ffffffffffffffff8111156129a0576129a0612644565b6129b4816129ae84546128b1565b84612938565b602080601f8311600181146129e957600084156129d15750858301515b600019600386901b1c1916600185901b17855561297e565b600085815260208120601f198616915b82811015612a18578886015182559484019460019091019084016129f9565b5085821015612a365787850151600019600388901b60f8161c191681555b5050505050600190811b01905550565b60008154612a53816128b1565b808552602060018381168015612a705760018114612a8a57612ab8565b60ff1985168884015283151560051b880183019550612ab8565b866000528260002060005b85811015612ab05781548a8201860152908301908401612a95565b890184019650505b505050505092915050565b606081526000612ad66060830186612a46565b8281036020840152612ae88186612a46565b915050826040830152949350505050565b634e487b7160e01b600052603260045260246000fd5b600060018201612b2157612b216124a8565b5060010190565b606081526000612b3b6060830186612550565b8281036020840152612ae88186612550565b60208082526032908201527f4552433732313a207472616e7366657220746f206e6f6e20455243373231526560408201527131b2b4bb32b91034b6b83632b6b2b73a32b960711b606082015260800190565b6001600160a01b0385811682528416602082015260408101839052608060608201819052600090612bd290830184612550565b9695505050505050565b600060208284031215612bee57600080fd5b81516110d28161251d565b634e487b7160e01b600052603160045260246000fdfea2646970667358221220755920ea9d2d57db05e05feb4c329f224c48f4f5d87928e8e9a7eb932f4361c664736f6c63430008110033",
  "devdoc": {
    "author": "zherring",
    "events": {
      "BillboardChange(address,string,string,uint256)": {
        "details": "Emitted when the billboard message and URL are changed.",
        "params": {
          "billboardSetter": "The address that changed the billboard.",
          "newBillboard": "The new billboard message.",
          "newBillboardURL": "The new URL for the billboard.",
          "value": "The value sent with the change, which is used to calculate the protocol fee."
        }
      },
      "EpochUpdated(uint256,uint256,uint256)": {
        "details": "Emitted when an epoch is updated.",
        "params": {
          "amtOwed": "The amount owed to each NFT owner in the updated epoch.",
          "epochIndex": "The index of the updated epoch.",
          "nftsMinted": "The number of NFTs minted in the updated epoch."
        }
      },
      "WithdrawalSuccessful(uint256,uint256,uint256)": {
        "details": "Emitted when a withdrawal is successful.",
        "params": {
          "amountOwed": "The amount withdrawn by the NFT owner.",
          "epochNumber": "The epoch number for which the withdrawal was made.",
          "nftId": "The ID of the NFT for which the withdrawal was made."
        }
      }
    },
    "kind": "dev",
    "methods": {
      "adminSetBillboardMessage(string,string)": {
        "details": "Function to allow the owner to change the billboard message. Message is optional, otherwise it defaults to start message. In case of spam or harmful messages!",
        "params": {
          "_newBillboardMessage": "The new message to set on the billboard.",
          "_newBillboardURL": "The new URL to set on the billboard."
        }
      },
      "approve(address,uint256)": {
        "details": "See {IERC721-approve}."
      },
      "balanceOf(address)": {
        "details": "See {IERC721-balanceOf}."
      },
      "burn(uint256)": {
        "details": "allows user to burn the billboard. Adjusts the activeTokens count so accurate shares are recorded for future epochs.",
        "params": {
          "tokenId": "is token to be burned"
        }
      },
      "claimShare(uint256,uint256)": {
        "details": "Allows an NFT owner to claim their share of the revenue generated from the billboard advertisement for a specific epoch. This function checks that the caller is the owner of the NFT, the epoch number is valid, and the share for the given epoch has not already been claimed. It then calculates the amount owed based on the revenue generated during the specified epoch and transfers this amount to the NFT owner. Requirements: - The caller must be the owner of the NFT. - The epoch number must be valid and not exceed the current epoch. - The share for the specified epoch and NFT ID must not have already been claimed. - The NFT ID must be eligible for the specified epoch (i.e., it was minted before the epoch ended). - The contract must have a sufficient balance to cover the withdrawal. Emits a `WithdrawalSuccessful` event upon a successful withdrawal.",
        "params": {
          "epochNumber": "The epoch number for which the share is being claimed.",
          "nftId": "The ID of the NFT for which the share is being claimed."
        }
      },
      "claimShareAll(uint256)": {
        "details": "Allows an NFT owner to claim their share of the revenue generated from the billboard advertisement across all epochs in which they have not yet claimed their share. This function iterates through all epochs, checks if the NFT owner has already claimed their share for each epoch, and if not, calculates and accumulates the amount owed to them. Once the total share is calculated, it transfers the accumulated amount to the NFT owner in a single transaction. This function ensures that NFT owners can conveniently claim their revenue share from multiple epochs in one transaction, reducing transaction costs and complexity. Requirements: - The caller must be the owner of the NFT. - The NFT must be eligible for revenue share in the epochs being claimed (i.e., it was minted before the epoch ended). - The contract must have a sufficient balance to cover the total share being claimed. - The NFT must not have already withdrawn the amount! Emits a `WithdrawalSuccessful` event for each epoch from which a share is successfully claimed.",
        "params": {
          "nftId": "The ID of the NFT for which the share is being claimed across all eligible epochs."
        }
      },
      "getAdjustedPrice()": {
        "details": "Calculates the adjusted price for setting a new billboard message. The adjusted price decreases over time since the last update but cannot fall below the base price. This ensures the price dynamically reflects demand while maintaining a minimum value.",
        "returns": {
          "_0": "uint256 The adjusted price for setting a new billboard message."
        }
      },
      "getApproved(uint256)": {
        "details": "See {IERC721-getApproved}."
      },
      "isApprovedForAll(address,address)": {
        "details": "See {IERC721-isApprovedForAll}."
      },
      "mintNFT()": {
        "details": "Mints a new NFT to the caller's address if they do not already own one.  This function is designed to ensure that each address can only mint one NFT to participate in the billboard advertisement revenue sharing.  Upon minting, the NFT's token ID is incremented, and the active token count is updated to reflect the new total.  Additionally, the price for the next billboard message update is increased by the specified increase rate to adjust for the new NFT minted. Requirements: - The caller must not already own an NFT minted by this contract to prevent Sybil attacks and ensure fair distribution. Emits a `Transfer` event as defined in the ERC721 standard, indicating the minting of a new NFT to the caller's address. Note: The function includes a safeguard against Sybil attacks by limiting minting to one NFT per address. However, this measure may not fully prevent determined attackers from circumventing the restriction through the use of multiple addresses."
      },
      "name()": {
        "details": "See {IERC721Metadata-name}."
      },
      "owner()": {
        "details": "Returns the address of the current owner."
      },
      "ownerOf(uint256)": {
        "details": "See {IERC721-ownerOf}."
      },
      "renounceOwnership()": {
        "details": "Leaves the contract without owner. It will not be possible to call `onlyOwner` functions anymore. Can only be called by the current owner. NOTE: Renouncing ownership will leave the contract without an owner, thereby removing any functionality that is only available to the owner."
      },
      "safeTransferFrom(address,address,uint256)": {
        "details": "See {IERC721-safeTransferFrom}."
      },
      "safeTransferFrom(address,address,uint256,bytes)": {
        "details": "See {IERC721-safeTransferFrom}."
      },
      "setApprovalForAll(address,bool)": {
        "details": "See {IERC721-setApprovalForAll}."
      },
      "setBasePrice(uint256)": {
        "details": "Allows the admin to set a new base price (e.g, lowest possible price to charge for the adspace)",
        "params": {
          "_newBasePrice": "The new base price to be set."
        }
      },
      "setBillboard(string,string)": {
        "details": "Function that allows anyone to change the state variable \"billboard\" and billboardURL of the contract.",
        "params": {
          "_newBillboardMessage": "(string memory) - new billboard message to save on the contract",
          "_newBillboardURL": "(string memory) - not required"
        }
      },
      "setDecreaseRate(uint256)": {
        "details": "Allows the admin to set a new decrease rate. Decrease rate is applied every block to AdjustedPrice.",
        "params": {
          "_newDecreaseRate": "The new decrease rate to be set."
        }
      },
      "setIncreaseRate(uint256)": {
        "details": "Allows the admin to set a new increase rate. Increase rate is applied upon updateBillboard and mintNFT",
        "params": {
          "_newIncreaseRate": "The new increase rate to be set."
        }
      },
      "supportsInterface(bytes4)": {
        "details": "See {IERC165-supportsInterface}."
      },
      "symbol()": {
        "details": "See {IERC721Metadata-symbol}."
      },
      "tokenByIndex(uint256)": {
        "details": "See {IERC721Enumerable-tokenByIndex}."
      },
      "tokenOfOwnerByIndex(address,uint256)": {
        "details": "See {IERC721Enumerable-tokenOfOwnerByIndex}."
      },
      "tokenURI(uint256)": {
        "details": "Returns the Uniform Resource Identifier (URI) for `tokenId` token. Reverts if the token ID does not exist. May return an empty string. This function is a required override of ERC721's `tokenURI` function.",
        "params": {
          "tokenId": "uint256 ID of the token to query."
        },
        "returns": {
          "_0": "string memory URI for the token."
        }
      },
      "totalSupply()": {
        "details": "See {IERC721Enumerable-totalSupply}."
      },
      "transferFrom(address,address,uint256)": {
        "details": "See {IERC721-transferFrom}."
      },
      "transferOwnership(address)": {
        "details": "Transfers ownership of the contract to a new account (`newOwner`). Can only be called by the current owner."
      },
      "withdrawProtocolFees()": {
        "details": "Withdraws the accumulated protocol fees to the contract owner's address. This function can only be called by the contract owner. It transfers the total accumulated protocol fees to the owner and resets the protocol revenue to zero.  Emits a `Transfer` event if the transfer is successful. Requirements: - Can only be called by the contract owner."
      }
    },
    "version": 1
  },
  "userdoc": {
    "kind": "user",
    "methods": {
      "withdrawProtocolFees()": {
        "notice": "Use this function to withdraw the accumulated protocol fees to the owner's address."
      }
    },
    "notice": "A simple billboard smartcontract, where a message state variable is for sale! Folks who mint the NFT  opt in to be advertised to, and so are entitled to a cut from the ad revenue users will see ads in their wallet, embedded in their app, or posted on social media ike Warpcast  TODOS for V2  - Figure out refund for ads that are replaced too quickly that doesn't encourage too much sybling  - \t- Idea: 10% Protocol Fee paid regardless, small window (1 hour?)  - Figure out some friction for Sybiling audience growth",
    "version": 1
  },
  "storageLayout": {
    "storage": [
      {
        "astId": 138,
        "contract": "contracts/AdFrame.sol:AdFrame",
        "label": "_name",
        "offset": 0,
        "slot": "0",
        "type": "t_string_storage"
      },
      {
        "astId": 140,
        "contract": "contracts/AdFrame.sol:AdFrame",
        "label": "_symbol",
        "offset": 0,
        "slot": "1",
        "type": "t_string_storage"
      },
      {
        "astId": 144,
        "contract": "contracts/AdFrame.sol:AdFrame",
        "label": "_owners",
        "offset": 0,
        "slot": "2",
        "type": "t_mapping(t_uint256,t_address)"
      },
      {
        "astId": 148,
        "contract": "contracts/AdFrame.sol:AdFrame",
        "label": "_balances",
        "offset": 0,
        "slot": "3",
        "type": "t_mapping(t_address,t_uint256)"
      },
      {
        "astId": 152,
        "contract": "contracts/AdFrame.sol:AdFrame",
        "label": "_tokenApprovals",
        "offset": 0,
        "slot": "4",
        "type": "t_mapping(t_uint256,t_address)"
      },
      {
        "astId": 158,
        "contract": "contracts/AdFrame.sol:AdFrame",
        "label": "_operatorApprovals",
        "offset": 0,
        "slot": "5",
        "type": "t_mapping(t_address,t_mapping(t_address,t_bool))"
      },
      {
        "astId": 1188,
        "contract": "contracts/AdFrame.sol:AdFrame",
        "label": "_ownedTokens",
        "offset": 0,
        "slot": "6",
        "type": "t_mapping(t_address,t_mapping(t_uint256,t_uint256))"
      },
      {
        "astId": 1192,
        "contract": "contracts/AdFrame.sol:AdFrame",
        "label": "_ownedTokensIndex",
        "offset": 0,
        "slot": "7",
        "type": "t_mapping(t_uint256,t_uint256)"
      },
      {
        "astId": 1195,
        "contract": "contracts/AdFrame.sol:AdFrame",
        "label": "_allTokens",
        "offset": 0,
        "slot": "8",
        "type": "t_array(t_uint256)dyn_storage"
      },
      {
        "astId": 1199,
        "contract": "contracts/AdFrame.sol:AdFrame",
        "label": "_allTokensIndex",
        "offset": 0,
        "slot": "9",
        "type": "t_mapping(t_uint256,t_uint256)"
      },
      {
        "astId": 7,
        "contract": "contracts/AdFrame.sol:AdFrame",
        "label": "_owner",
        "offset": 0,
        "slot": "10",
        "type": "t_address"
      },
      {
        "astId": 3102,
        "contract": "contracts/AdFrame.sol:AdFrame",
        "label": "protocolFee",
        "offset": 0,
        "slot": "11",
        "type": "t_uint256"
      },
      {
        "astId": 3105,
        "contract": "contracts/AdFrame.sol:AdFrame",
        "label": "protocolRevenue",
        "offset": 0,
        "slot": "12",
        "type": "t_uint256"
      },
      {
        "astId": 3115,
        "contract": "contracts/AdFrame.sol:AdFrame",
        "label": "epochs",
        "offset": 0,
        "slot": "13",
        "type": "t_mapping(t_uint256,t_struct(epochData)3110_storage)"
      },
      {
        "astId": 3118,
        "contract": "contracts/AdFrame.sol:AdFrame",
        "label": "currentEpoch",
        "offset": 0,
        "slot": "14",
        "type": "t_uint256"
      },
      {
        "astId": 3124,
        "contract": "contracts/AdFrame.sol:AdFrame",
        "label": "hasWithdrawn",
        "offset": 0,
        "slot": "15",
        "type": "t_mapping(t_uint256,t_mapping(t_uint256,t_bool))"
      },
      {
        "astId": 3131,
        "contract": "contracts/AdFrame.sol:AdFrame",
        "label": "_tokenIds",
        "offset": 0,
        "slot": "16",
        "type": "t_struct(Counter)1943_storage"
      },
      {
        "astId": 3134,
        "contract": "contracts/AdFrame.sol:AdFrame",
        "label": "_activeTokens",
        "offset": 0,
        "slot": "17",
        "type": "t_struct(Counter)1943_storage"
      },
      {
        "astId": 3136,
        "contract": "contracts/AdFrame.sol:AdFrame",
        "label": "_commonURI",
        "offset": 0,
        "slot": "18",
        "type": "t_string_storage"
      },
      {
        "astId": 3141,
        "contract": "contracts/AdFrame.sol:AdFrame",
        "label": "nftIdWithdraws",
        "offset": 0,
        "slot": "19",
        "type": "t_mapping(t_uint256,t_array(t_uint256)dyn_storage)"
      },
      {
        "astId": 3144,
        "contract": "contracts/AdFrame.sol:AdFrame",
        "label": "billboard",
        "offset": 0,
        "slot": "20",
        "type": "t_string_storage"
      },
      {
        "astId": 3147,
        "contract": "contracts/AdFrame.sol:AdFrame",
        "label": "billboardURL",
        "offset": 0,
        "slot": "21",
        "type": "t_string_storage"
      },
      {
        "astId": 3150,
        "contract": "contracts/AdFrame.sol:AdFrame",
        "label": "basePrice",
        "offset": 0,
        "slot": "22",
        "type": "t_uint256"
      },
      {
        "astId": 3153,
        "contract": "contracts/AdFrame.sol:AdFrame",
        "label": "lastPrice",
        "offset": 0,
        "slot": "23",
        "type": "t_uint256"
      },
      {
        "astId": 3155,
        "contract": "contracts/AdFrame.sol:AdFrame",
        "label": "lastUpdateTime",
        "offset": 0,
        "slot": "24",
        "type": "t_uint256"
      },
      {
        "astId": 3158,
        "contract": "contracts/AdFrame.sol:AdFrame",
        "label": "decreaseRate",
        "offset": 0,
        "slot": "25",
        "type": "t_uint256"
      },
      {
        "astId": 3161,
        "contract": "contracts/AdFrame.sol:AdFrame",
        "label": "increaseRate",
        "offset": 0,
        "slot": "26",
        "type": "t_uint256"
      }
    ],
    "types": {
      "t_address": {
        "encoding": "inplace",
        "label": "address",
        "numberOfBytes": "20"
      },
      "t_array(t_uint256)dyn_storage": {
        "base": "t_uint256",
        "encoding": "dynamic_array",
        "label": "uint256[]",
        "numberOfBytes": "32"
      },
      "t_bool": {
        "encoding": "inplace",
        "label": "bool",
        "numberOfBytes": "1"
      },
      "t_mapping(t_address,t_bool)": {
        "encoding": "mapping",
        "key": "t_address",
        "label": "mapping(address => bool)",
        "numberOfBytes": "32",
        "value": "t_bool"
      },
      "t_mapping(t_address,t_mapping(t_address,t_bool))": {
        "encoding": "mapping",
        "key": "t_address",
        "label": "mapping(address => mapping(address => bool))",
        "numberOfBytes": "32",
        "value": "t_mapping(t_address,t_bool)"
      },
      "t_mapping(t_address,t_mapping(t_uint256,t_uint256))": {
        "encoding": "mapping",
        "key": "t_address",
        "label": "mapping(address => mapping(uint256 => uint256))",
        "numberOfBytes": "32",
        "value": "t_mapping(t_uint256,t_uint256)"
      },
      "t_mapping(t_address,t_uint256)": {
        "encoding": "mapping",
        "key": "t_address",
        "label": "mapping(address => uint256)",
        "numberOfBytes": "32",
        "value": "t_uint256"
      },
      "t_mapping(t_uint256,t_address)": {
        "encoding": "mapping",
        "key": "t_uint256",
        "label": "mapping(uint256 => address)",
        "numberOfBytes": "32",
        "value": "t_address"
      },
      "t_mapping(t_uint256,t_array(t_uint256)dyn_storage)": {
        "encoding": "mapping",
        "key": "t_uint256",
        "label": "mapping(uint256 => uint256[])",
        "numberOfBytes": "32",
        "value": "t_array(t_uint256)dyn_storage"
      },
      "t_mapping(t_uint256,t_bool)": {
        "encoding": "mapping",
        "key": "t_uint256",
        "label": "mapping(uint256 => bool)",
        "numberOfBytes": "32",
        "value": "t_bool"
      },
      "t_mapping(t_uint256,t_mapping(t_uint256,t_bool))": {
        "encoding": "mapping",
        "key": "t_uint256",
        "label": "mapping(uint256 => mapping(uint256 => bool))",
        "numberOfBytes": "32",
        "value": "t_mapping(t_uint256,t_bool)"
      },
      "t_mapping(t_uint256,t_struct(epochData)3110_storage)": {
        "encoding": "mapping",
        "key": "t_uint256",
        "label": "mapping(uint256 => struct AdFrame.epochData)",
        "numberOfBytes": "32",
        "value": "t_struct(epochData)3110_storage"
      },
      "t_mapping(t_uint256,t_uint256)": {
        "encoding": "mapping",
        "key": "t_uint256",
        "label": "mapping(uint256 => uint256)",
        "numberOfBytes": "32",
        "value": "t_uint256"
      },
      "t_string_storage": {
        "encoding": "bytes",
        "label": "string",
        "numberOfBytes": "32"
      },
      "t_struct(Counter)1943_storage": {
        "encoding": "inplace",
        "label": "struct Counters.Counter",
        "members": [
          {
            "astId": 1942,
            "contract": "contracts/AdFrame.sol:AdFrame",
            "label": "_value",
            "offset": 0,
            "slot": "0",
            "type": "t_uint256"
          }
        ],
        "numberOfBytes": "32"
      },
      "t_struct(epochData)3110_storage": {
        "encoding": "inplace",
        "label": "struct AdFrame.epochData",
        "members": [
          {
            "astId": 3107,
            "contract": "contracts/AdFrame.sol:AdFrame",
            "label": "nftsMinted",
            "offset": 0,
            "slot": "0",
            "type": "t_uint256"
          },
          {
            "astId": 3109,
            "contract": "contracts/AdFrame.sol:AdFrame",
            "label": "amtOwed",
            "offset": 0,
            "slot": "1",
            "type": "t_uint256"
          }
        ],
        "numberOfBytes": "64"
      },
      "t_uint256": {
        "encoding": "inplace",
        "label": "uint256",
        "numberOfBytes": "32"
      }
    }
  }
}