{
  "address": "0x34E4745fd669df2151D9044f07717C4ccBF41ed2",
  "abi": [
    {
      "inputs": [
        {
          "internalType": "string",
          "name": "initialURI",
          "type": "string"
        }
      ],
      "stateMutability": "nonpayable",
      "type": "constructor"
    },
    {
      "anonymous": false,
      "inputs": [
        {
          "indexed": true,
          "internalType": "address",
          "name": "owner",
          "type": "address"
        },
        {
          "indexed": true,
          "internalType": "address",
          "name": "approved",
          "type": "address"
        },
        {
          "indexed": true,
          "internalType": "uint256",
          "name": "tokenId",
          "type": "uint256"
        }
      ],
      "name": "Approval",
      "type": "event"
    },
    {
      "anonymous": false,
      "inputs": [
        {
          "indexed": true,
          "internalType": "address",
          "name": "owner",
          "type": "address"
        },
        {
          "indexed": true,
          "internalType": "address",
          "name": "operator",
          "type": "address"
        },
        {
          "indexed": false,
          "internalType": "bool",
          "name": "approved",
          "type": "bool"
        }
      ],
      "name": "ApprovalForAll",
      "type": "event"
    },
    {
      "anonymous": false,
      "inputs": [
        {
          "indexed": true,
          "internalType": "address",
          "name": "billboardSetter",
          "type": "address"
        },
        {
          "indexed": false,
          "internalType": "string",
          "name": "newBillboard",
          "type": "string"
        },
        {
          "indexed": false,
          "internalType": "string",
          "name": "newBillboardURL",
          "type": "string"
        },
        {
          "indexed": false,
          "internalType": "uint256",
          "name": "value",
          "type": "uint256"
        }
      ],
      "name": "BillboardChange",
      "type": "event"
    },
    {
      "anonymous": false,
      "inputs": [
        {
          "indexed": true,
          "internalType": "uint256",
          "name": "epochIndex",
          "type": "uint256"
        },
        {
          "indexed": false,
          "internalType": "uint256",
          "name": "nftsMinted",
          "type": "uint256"
        },
        {
          "indexed": false,
          "internalType": "uint256",
          "name": "amtOwed",
          "type": "uint256"
        }
      ],
      "name": "EpochUpdated",
      "type": "event"
    },
    {
      "anonymous": false,
      "inputs": [
        {
          "indexed": true,
          "internalType": "address",
          "name": "previousOwner",
          "type": "address"
        },
        {
          "indexed": true,
          "internalType": "address",
          "name": "newOwner",
          "type": "address"
        }
      ],
      "name": "OwnershipTransferred",
      "type": "event"
    },
    {
      "anonymous": false,
      "inputs": [
        {
          "indexed": true,
          "internalType": "address",
          "name": "from",
          "type": "address"
        },
        {
          "indexed": true,
          "internalType": "address",
          "name": "to",
          "type": "address"
        },
        {
          "indexed": true,
          "internalType": "uint256",
          "name": "tokenId",
          "type": "uint256"
        }
      ],
      "name": "Transfer",
      "type": "event"
    },
    {
      "anonymous": false,
      "inputs": [
        {
          "indexed": true,
          "internalType": "uint256",
          "name": "epochNumber",
          "type": "uint256"
        },
        {
          "indexed": true,
          "internalType": "uint256",
          "name": "nftId",
          "type": "uint256"
        },
        {
          "indexed": false,
          "internalType": "uint256",
          "name": "amountOwed",
          "type": "uint256"
        }
      ],
      "name": "WithdrawalSuccessful",
      "type": "event"
    },
    {
      "inputs": [],
      "name": "_tokenIds",
      "outputs": [
        {
          "internalType": "uint256",
          "name": "_value",
          "type": "uint256"
        }
      ],
      "stateMutability": "view",
      "type": "function"
    },
    {
      "inputs": [
        {
          "internalType": "string",
          "name": "_newBillboardMessage",
          "type": "string"
        },
        {
          "internalType": "string",
          "name": "_newBillboardURL",
          "type": "string"
        }
      ],
      "name": "adminSetBillboardMessage",
      "outputs": [],
      "stateMutability": "nonpayable",
      "type": "function"
    },
    {
      "inputs": [
        {
          "internalType": "uint256",
          "name": "_newFeePercent",
          "type": "uint256"
        }
      ],
      "name": "adminSetProtocolFee",
      "outputs": [],
      "stateMutability": "nonpayable",
      "type": "function"
    },
    {
      "inputs": [
        {
          "internalType": "address",
          "name": "to",
          "type": "address"
        },
        {
          "internalType": "uint256",
          "name": "tokenId",
          "type": "uint256"
        }
      ],
      "name": "approve",
      "outputs": [],
      "stateMutability": "nonpayable",
      "type": "function"
    },
    {
      "inputs": [
        {
          "internalType": "address",
          "name": "owner",
          "type": "address"
        }
      ],
      "name": "balanceOf",
      "outputs": [
        {
          "internalType": "uint256",
          "name": "",
          "type": "uint256"
        }
      ],
      "stateMutability": "view",
      "type": "function"
    },
    {
      "inputs": [],
      "name": "basePrice",
      "outputs": [
        {
          "internalType": "uint256",
          "name": "",
          "type": "uint256"
        }
      ],
      "stateMutability": "view",
      "type": "function"
    },
    {
      "inputs": [],
      "name": "billboard",
      "outputs": [
        {
          "internalType": "string",
          "name": "",
          "type": "string"
        }
      ],
      "stateMutability": "view",
      "type": "function"
    },
    {
      "inputs": [],
      "name": "billboardURL",
      "outputs": [
        {
          "internalType": "string",
          "name": "",
          "type": "string"
        }
      ],
      "stateMutability": "view",
      "type": "function"
    },
    {
      "inputs": [
        {
          "internalType": "uint256",
          "name": "tokenId",
          "type": "uint256"
        }
      ],
      "name": "burn",
      "outputs": [],
      "stateMutability": "nonpayable",
      "type": "function"
    },
    {
      "inputs": [
        {
          "internalType": "uint256",
          "name": "epochNumber",
          "type": "uint256"
        },
        {
          "internalType": "uint256",
          "name": "nftId",
          "type": "uint256"
        }
      ],
      "name": "claimShare",
      "outputs": [],
      "stateMutability": "nonpayable",
      "type": "function"
    },
    {
      "inputs": [
        {
          "internalType": "uint256",
          "name": "nftId",
          "type": "uint256"
        }
      ],
      "name": "claimShareAll",
      "outputs": [],
      "stateMutability": "nonpayable",
      "type": "function"
    },
    {
      "inputs": [],
      "name": "currentEpoch",
      "outputs": [
        {
          "internalType": "uint256",
          "name": "",
          "type": "uint256"
        }
      ],
      "stateMutability": "view",
      "type": "function"
    },
    {
      "inputs": [],
      "name": "decreaseRate",
      "outputs": [
        {
          "internalType": "uint256",
          "name": "",
          "type": "uint256"
        }
      ],
      "stateMutability": "view",
      "type": "function"
    },
    {
      "inputs": [
        {
          "internalType": "uint256",
          "name": "",
          "type": "uint256"
        }
      ],
      "name": "epochs",
      "outputs": [
        {
          "internalType": "uint256",
          "name": "nftsMinted",
          "type": "uint256"
        },
        {
          "internalType": "uint256",
          "name": "amtOwed",
          "type": "uint256"
        }
      ],
      "stateMutability": "view",
      "type": "function"
    },
    {
      "inputs": [],
      "name": "getAdjustedPrice",
      "outputs": [
        {
          "internalType": "uint256",
          "name": "",
          "type": "uint256"
        }
      ],
      "stateMutability": "view",
      "type": "function"
    },
    {
      "inputs": [
        {
          "internalType": "uint256",
          "name": "tokenId",
          "type": "uint256"
        }
      ],
      "name": "getApproved",
      "outputs": [
        {
          "internalType": "address",
          "name": "",
          "type": "address"
        }
      ],
      "stateMutability": "view",
      "type": "function"
    },
    {
      "inputs": [],
      "name": "increaseRate",
      "outputs": [
        {
          "internalType": "uint256",
          "name": "",
          "type": "uint256"
        }
      ],
      "stateMutability": "view",
      "type": "function"
    },
    {
      "inputs": [
        {
          "internalType": "address",
          "name": "owner",
          "type": "address"
        },
        {
          "internalType": "address",
          "name": "operator",
          "type": "address"
        }
      ],
      "name": "isApprovedForAll",
      "outputs": [
        {
          "internalType": "bool",
          "name": "",
          "type": "bool"
        }
      ],
      "stateMutability": "view",
      "type": "function"
    },
    {
      "inputs": [],
      "name": "lastPrice",
      "outputs": [
        {
          "internalType": "uint256",
          "name": "",
          "type": "uint256"
        }
      ],
      "stateMutability": "view",
      "type": "function"
    },
    {
      "inputs": [],
      "name": "lastUpdateTime",
      "outputs": [
        {
          "internalType": "uint256",
          "name": "",
          "type": "uint256"
        }
      ],
      "stateMutability": "view",
      "type": "function"
    },
    {
      "inputs": [],
      "name": "mintNFT",
      "outputs": [],
      "stateMutability": "nonpayable",
      "type": "function"
    },
    {
      "inputs": [],
      "name": "name",
      "outputs": [
        {
          "internalType": "string",
          "name": "",
          "type": "string"
        }
      ],
      "stateMutability": "view",
      "type": "function"
    },
    {
      "inputs": [],
      "name": "owner",
      "outputs": [
        {
          "internalType": "address",
          "name": "",
          "type": "address"
        }
      ],
      "stateMutability": "view",
      "type": "function"
    },
    {
      "inputs": [
        {
          "internalType": "uint256",
          "name": "tokenId",
          "type": "uint256"
        }
      ],
      "name": "ownerOf",
      "outputs": [
        {
          "internalType": "address",
          "name": "",
          "type": "address"
        }
      ],
      "stateMutability": "view",
      "type": "function"
    },
    {
      "inputs": [],
      "name": "protocolFee",
      "outputs": [
        {
          "internalType": "uint256",
          "name": "",
          "type": "uint256"
        }
      ],
      "stateMutability": "view",
      "type": "function"
    },
    {
      "inputs": [],
      "name": "protocolRevenue",
      "outputs": [
        {
          "internalType": "uint256",
          "name": "",
          "type": "uint256"
        }
      ],
      "stateMutability": "view",
      "type": "function"
    },
    {
      "inputs": [],
      "name": "renounceOwnership",
      "outputs": [],
      "stateMutability": "nonpayable",
      "type": "function"
    },
    {
      "inputs": [
        {
          "internalType": "address",
          "name": "from",
          "type": "address"
        },
        {
          "internalType": "address",
          "name": "to",
          "type": "address"
        },
        {
          "internalType": "uint256",
          "name": "tokenId",
          "type": "uint256"
        }
      ],
      "name": "safeTransferFrom",
      "outputs": [],
      "stateMutability": "nonpayable",
      "type": "function"
    },
    {
      "inputs": [
        {
          "internalType": "address",
          "name": "from",
          "type": "address"
        },
        {
          "internalType": "address",
          "name": "to",
          "type": "address"
        },
        {
          "internalType": "uint256",
          "name": "tokenId",
          "type": "uint256"
        },
        {
          "internalType": "bytes",
          "name": "data",
          "type": "bytes"
        }
      ],
      "name": "safeTransferFrom",
      "outputs": [],
      "stateMutability": "nonpayable",
      "type": "function"
    },
    {
      "inputs": [
        {
          "internalType": "address",
          "name": "operator",
          "type": "address"
        },
        {
          "internalType": "bool",
          "name": "approved",
          "type": "bool"
        }
      ],
      "name": "setApprovalForAll",
      "outputs": [],
      "stateMutability": "nonpayable",
      "type": "function"
    },
    {
      "inputs": [
        {
          "internalType": "uint256",
          "name": "_newBasePrice",
          "type": "uint256"
        }
      ],
      "name": "setBasePrice",
      "outputs": [],
      "stateMutability": "nonpayable",
      "type": "function"
    },
    {
      "inputs": [
        {
          "internalType": "string",
          "name": "_newBillboardMessage",
          "type": "string"
        },
        {
          "internalType": "string",
          "name": "_newBillboardURL",
          "type": "string"
        }
      ],
      "name": "setBillboard",
      "outputs": [],
      "stateMutability": "payable",
      "type": "function"
    },
    {
      "inputs": [
        {
          "internalType": "string",
          "name": "newURI",
          "type": "string"
        }
      ],
      "name": "setCommonURI",
      "outputs": [],
      "stateMutability": "nonpayable",
      "type": "function"
    },
    {
      "inputs": [
        {
          "internalType": "uint256",
          "name": "_newDecreaseRate",
          "type": "uint256"
        }
      ],
      "name": "setDecreaseRate",
      "outputs": [],
      "stateMutability": "nonpayable",
      "type": "function"
    },
    {
      "inputs": [
        {
          "internalType": "uint256",
          "name": "_newIncreaseRate",
          "type": "uint256"
        }
      ],
      "name": "setIncreaseRate",
      "outputs": [],
      "stateMutability": "nonpayable",
      "type": "function"
    },
    {
      "inputs": [
        {
          "internalType": "bytes4",
          "name": "interfaceId",
          "type": "bytes4"
        }
      ],
      "name": "supportsInterface",
      "outputs": [
        {
          "internalType": "bool",
          "name": "",
          "type": "bool"
        }
      ],
      "stateMutability": "view",
      "type": "function"
    },
    {
      "inputs": [],
      "name": "symbol",
      "outputs": [
        {
          "internalType": "string",
          "name": "",
          "type": "string"
        }
      ],
      "stateMutability": "view",
      "type": "function"
    },
    {
      "inputs": [
        {
          "internalType": "uint256",
          "name": "index",
          "type": "uint256"
        }
      ],
      "name": "tokenByIndex",
      "outputs": [
        {
          "internalType": "uint256",
          "name": "",
          "type": "uint256"
        }
      ],
      "stateMutability": "view",
      "type": "function"
    },
    {
      "inputs": [
        {
          "internalType": "address",
          "name": "owner",
          "type": "address"
        },
        {
          "internalType": "uint256",
          "name": "index",
          "type": "uint256"
        }
      ],
      "name": "tokenOfOwnerByIndex",
      "outputs": [
        {
          "internalType": "uint256",
          "name": "",
          "type": "uint256"
        }
      ],
      "stateMutability": "view",
      "type": "function"
    },
    {
      "inputs": [
        {
          "internalType": "uint256",
          "name": "tokenId",
          "type": "uint256"
        }
      ],
      "name": "tokenURI",
      "outputs": [
        {
          "internalType": "string",
          "name": "",
          "type": "string"
        }
      ],
      "stateMutability": "view",
      "type": "function"
    },
    {
      "inputs": [],
      "name": "totalActiveTokens",
      "outputs": [
        {
          "internalType": "uint256",
          "name": "",
          "type": "uint256"
        }
      ],
      "stateMutability": "view",
      "type": "function"
    },
    {
      "inputs": [],
      "name": "totalSupply",
      "outputs": [
        {
          "internalType": "uint256",
          "name": "",
          "type": "uint256"
        }
      ],
      "stateMutability": "view",
      "type": "function"
    },
    {
      "inputs": [
        {
          "internalType": "address",
          "name": "from",
          "type": "address"
        },
        {
          "internalType": "address",
          "name": "to",
          "type": "address"
        },
        {
          "internalType": "uint256",
          "name": "tokenId",
          "type": "uint256"
        }
      ],
      "name": "transferFrom",
      "outputs": [],
      "stateMutability": "nonpayable",
      "type": "function"
    },
    {
      "inputs": [
        {
          "internalType": "address",
          "name": "newOwner",
          "type": "address"
        }
      ],
      "name": "transferOwnership",
      "outputs": [],
      "stateMutability": "nonpayable",
      "type": "function"
    },
    {
      "inputs": [],
      "name": "withdrawProtocolFees",
      "outputs": [],
      "stateMutability": "nonpayable",
      "type": "function"
    },
    {
      "stateMutability": "payable",
      "type": "receive"
    }
  ],
  "transactionHash": "0x48df02ae1c8e865319c8e3f4ac27cbd12df3fbc5545b652e16afdd68b806e196",
  "args": [
    "YourInitialURI"
  ],
  "numDeployments": 1,
  "solcInputHash": "e5bfe22ebfc0957140c09bccea06ef14",
  "bytecode": "0x600a600b556000600c819055600e5560c0604052601360809081527f5468697320537061636520666f722053616c650000000000000000000000000060a0526014906200004d90826200027a565b5060408051808201909152601381527f68747470733a2f2f61646672616d652e78797a0000000000000000000000000060208201526015906200009190826200027a565b5065f5904616e000601655601654601755643edd410c00601955650274a48a7800601a55348015620000c257600080fd5b50604051620032c8380380620032c8833981016040819052620000e59162000346565b6040518060400160405280600c81526020016b109a5b1b189bd85c9913919560a21b81525060405180604001604052806005815260200164109093919560da1b81525081600090816200013991906200027a565b5060016200014882826200027a565b505050620001656200015f6200017f60201b60201c565b62000183565b4260185560126200017782826200027a565b50506200041b565b3390565b600a80546001600160a01b038381166001600160a01b0319831681179093556040519116919082907f8be0079c531659141344cd1fd0a4f28419497f9722a3daafe3b4186f6b6457e090600090a35050565b634e487b7160e01b600052604160045260246000fd5b600181811c908216806200020057607f821691505b6020821081036200022157634e487b7160e01b600052602260045260246000fd5b50919050565b601f8211156200027557600081815260208120601f850160051c81016020861015620002505750805b601f850160051c820191505b8181101562000271578281556001016200025c565b5050505b505050565b81516001600160401b03811115620002965762000296620001d5565b620002ae81620002a78454620001eb565b8462000227565b602080601f831160018114620002e65760008415620002cd5750858301515b600019600386901b1c1916600185901b17855562000271565b600085815260208120601f198616915b828110156200031757888601518255948401946001909101908401620002f6565b5085821015620003365787850151600019600388901b60f8161c191681555b5050505050600190811b01905550565b600060208083850312156200035a57600080fd5b82516001600160401b03808211156200037257600080fd5b818501915085601f8301126200038757600080fd5b8151818111156200039c576200039c620001d5565b604051601f8201601f19908116603f01168101908382118183101715620003c757620003c7620001d5565b816040528281528886848701011115620003e057600080fd5b600093505b82841015620004045784840186015181850187015292850192620003e5565b600086848301015280965050505050505092915050565b612e9d806200042b6000396000f3fe6080604052600436106102765760003560e01c80636c1265621161014f578063a22cb465116100c1578063c87b56dd1161007a578063c87b56dd1461087e578063c8f33c911461089e578063de4b3262146108b4578063e985e9c5146108d4578063ea08629b1461091d578063f2fde38b1461093057600080fd5b8063a22cb465146107b2578063aa46a400146107d2578063b0e21e8a146107e9578063b88d4fde146107ff578063c6b61e4c1461081f578063c7876ea41461086857600080fd5b80637b981541116101135780637b981541146107155780638795cccb146107355780638da5cb5b1461074a578063959d9fab1461076857806395d89b411461077d57806396d530e21461079257600080fd5b80636c1265621461069457806370a08231146106b4578063715018a6146106d457806376671808146106e95780637af3816c146106ff57600080fd5b806339059661116101e85780634f13b8b9116101ac5780634f13b8b9146105ea5780634f6ccce71461060a578063520e65151461062a57806355fc98931461063f5780635e17eb331461065f5780636352211e1461067457600080fd5b806339059661146105555780633c168afe1461057557806342842e0e1461059557806342966c68146105b55780634aa4e57d146105d557600080fd5b806314f710fe1161023a57806314f710fe146104bf57806318160ddd146104d457806323b872dd146104e95780632897183d146105095780632a4b122f1461051f5780632f745c591461053557600080fd5b806301ffc9a7146103ea578063053f14da1461041f57806306fdde0314610443578063081812fc14610465578063095ea7b31461049d57600080fd5b366103e557600034116102be5760405162461bcd60e51b815260206004820152600b60248201526a139bc8115512081cd95b9d60aa1b60448201526064015b60405180910390fd5b60006102c960115490565b90506000811161030c5760405162461bcd60e51b815260206004820152600e60248201526d139bc81391951cc81b5a5b9d195960921b60448201526064016102b5565b60006064600b543461031e9190612645565b610328919061265c565b905080600c600082825461033c919061267e565b909155506000905061034e8234612691565b90506001600e6000828254610363919061267e565b9091555060009050610375848361265c565b6040805180820182528681526020808201848152600e80546000908152600d8452859020935184559051600190930192909255905482518881529182018490529293507f2df6562a84e8230615692a4ab0f0a5ed8c530ddef1234943bc37aa74646bb876910160405180910390a2005b600080fd5b3480156103f657600080fd5b5061040a6104053660046126ba565b610950565b60405190151581526020015b60405180910390f35b34801561042b57600080fd5b5061043560175481565b604051908152602001610416565b34801561044f57600080fd5b5061045861097b565b6040516104169190612724565b34801561047157600080fd5b50610485610480366004612737565b610a0d565b6040516001600160a01b039091168152602001610416565b3480156104a957600080fd5b506104bd6104b836600461276c565b610a34565b005b3480156104cb57600080fd5b506104bd610b49565b3480156104e057600080fd5b50600854610435565b3480156104f557600080fd5b506104bd610504366004612796565b610c26565b34801561051557600080fd5b5061043560195481565b34801561052b57600080fd5b50610435601a5481565b34801561054157600080fd5b5061043561055036600461276c565b610c57565b34801561056157600080fd5b506104bd61057036600461287e565b610ced565b34801561058157600080fd5b506104bd6105903660046128e2565b610de9565b3480156105a157600080fd5b506104bd6105b0366004612796565b611021565b3480156105c157600080fd5b506104bd6105d0366004612737565b61103c565b3480156105e157600080fd5b506104356110af565b3480156105f657600080fd5b506104bd610605366004612737565b61114d565b34801561061657600080fd5b50610435610625366004612737565b6111a4565b34801561063657600080fd5b50610435611237565b34801561064b57600080fd5b506104bd61065a366004612904565b611247565b34801561066b57600080fd5b5061045861125f565b34801561068057600080fd5b5061048561068f366004612737565b6112ed565b3480156106a057600080fd5b506104bd6106af366004612737565b61134d565b3480156106c057600080fd5b506104356106cf366004612939565b61135a565b3480156106e057600080fd5b506104bd6113e0565b3480156106f557600080fd5b50610435600e5481565b34801561070b57600080fd5b50610435600c5481565b34801561072157600080fd5b506104bd610730366004612737565b6113f4565b34801561074157600080fd5b506104bd611593565b34801561075657600080fd5b50600a546001600160a01b0316610485565b34801561077457600080fd5b5061045861164b565b34801561078957600080fd5b50610458611658565b34801561079e57600080fd5b506104bd6107ad366004612737565b611667565b3480156107be57600080fd5b506104bd6107cd366004612954565b611674565b3480156107de57600080fd5b506010546104359081565b3480156107f557600080fd5b50610435600b5481565b34801561080b57600080fd5b506104bd61081a366004612990565b61167f565b34801561082b57600080fd5b5061085361083a366004612737565b600d602052600090815260409020805460019091015482565b60408051928352602083019190915201610416565b34801561087457600080fd5b5061043560165481565b34801561088a57600080fd5b50610458610899366004612737565b6116b7565b3480156108aa57600080fd5b5061043560185481565b3480156108c057600080fd5b506104bd6108cf366004612737565b6117c8565b3480156108e057600080fd5b5061040a6108ef366004612a0c565b6001600160a01b03918216600090815260056020908152604080832093909416825291909152205460ff1690565b6104bd61092b36600461287e565b6117d5565b34801561093c57600080fd5b506104bd61094b366004612939565b6119b9565b60006001600160e01b0319821663780e9d6360e01b1480610975575061097582611a2f565b92915050565b60606000805461098a90612a3f565b80601f01602080910402602001604051908101604052809291908181526020018280546109b690612a3f565b8015610a035780601f106109d857610100808354040283529160200191610a03565b820191906000526020600020905b8154815290600101906020018083116109e657829003601f168201915b5050505050905090565b6000610a1882611a7f565b506000908152600460205260409020546001600160a01b031690565b6000610a3f826112ed565b9050806001600160a01b0316836001600160a01b031603610aac5760405162461bcd60e51b815260206004820152602160248201527f4552433732313a20617070726f76616c20746f2063757272656e74206f776e656044820152603960f91b60648201526084016102b5565b336001600160a01b0382161480610ac85750610ac881336108ef565b610b3a5760405162461bcd60e51b815260206004820152603d60248201527f4552433732313a20617070726f76652063616c6c6572206973206e6f7420746f60448201527f6b656e206f776e6572206f7220617070726f76656420666f7220616c6c00000060648201526084016102b5565b610b448383611ade565b505050565b610b523361135a565b15610b9f5760405162461bcd60e51b815260206004820152601b60248201527f4164647265737320616c7265616479206f776e7320616e204e4654000000000060448201526064016102b5565b610bad601080546001019055565b6000610bb860105490565b9050610bc43382611b4c565b610bd2601180546001019055565b601a5460176000828254610be6919061267e565b90915550506040805180820190915260168152754d696e746564204e465420494420257320746f20257360501b6020820152610c23908233611ce5565b50565b610c303382611d2c565b610c4c5760405162461bcd60e51b81526004016102b590612a79565b610b44838383611daa565b6000610c628361135a565b8210610cc45760405162461bcd60e51b815260206004820152602b60248201527f455243373231456e756d657261626c653a206f776e657220696e646578206f7560448201526a74206f6620626f756e647360a81b60648201526084016102b5565b506001600160a01b03919091166000908152600660209081526040808320938352929052205490565b610cf5611df2565b8151600003610d3b576040805180820190915260138152725468697320537061636520666f722053616c6560681b6020820152601490610d359082612b14565b50610d49565b6014610d478382612b14565b505b8051600003610d8f57604080518082019091526013815272343a3a38399d1797b0b2333930b6b2973c3cbd60691b6020820152601590610d899082612b14565b50610d9d565b6015610d9b8282612b14565b505b336001600160a01b03167fc3de0fd922507907f842c767b8f5c8867f70083c0a216ae592befcda1502d9bf601460156000604051610ddd93929190612c51565b60405180910390a25050565b33610df3826112ed565b6001600160a01b031614610e495760405162461bcd60e51b815260206004820152601b60248201527f43616c6c657220646f6573206e6f74206f776e20746865204e4654000000000060448201526064016102b5565b600e54821115610e925760405162461bcd60e51b815260206004820152601460248201527324b73b30b634b21032b837b1b410373ab6b132b960611b60448201526064016102b5565b6000828152600f6020908152604080832084845290915290205460ff1615610ef05760405162461bcd60e51b815260206004820152601160248201527020b63932b0b23c903bb4ba34323930bbb760791b60448201526064016102b5565b6000828152600d602052604090208054821115610f5d5760405162461bcd60e51b815260206004820152602560248201527f4e4654204944206973206e6f7420656c696769626c6520666f722074686973206044820152640cae0dec6d60db1b60648201526084016102b5565b600181015447811115610fb25760405162461bcd60e51b815260206004820152601d60248201527f496e73756666696369656e7420636f6e74726163742062616c616e636500000060448201526064016102b5565b6000848152600f602090815260408083208684529091529020805460ff19166001179055610fe03382611e4c565b82847f625f0d536f64b06e1fc7914e3aa5678fc3ff7127caf393cf5c758af6965720848360405161101391815260200190565b60405180910390a350505050565b610b448383836040518060200160405280600081525061167f565b33611046826112ed565b6001600160a01b03161461109c5760405162461bcd60e51b815260206004820152601d60248201527f43616c6c6572206973206e6f742074686520746f6b656e206f776e657200000060448201526064016102b5565b6110a581611f65565b610c236011612008565b600080601854426110c09190612691565b90506000601954826110d29190612645565b905060008160175411156110f557816017546110ee9190612691565b90506110fa565b506016545b6000601654821161110d5760165461110f565b815b90506111456040518060400160405280601281526020017120b2353ab9ba32b210383934b1b29034b99d60711b8152508261205f565b949350505050565b611155611df2565b606481111561119f5760405162461bcd60e51b81526020600482015260166024820152754665652063616e6e6f7420657863656564203130302560501b60448201526064016102b5565b600b55565b60006111af60085490565b82106112125760405162461bcd60e51b815260206004820152602c60248201527f455243373231456e756d657261626c653a20676c6f62616c20696e646578206f60448201526b7574206f6620626f756e647360a01b60648201526084016102b5565b6008828154811061122557611225612c87565b90600052602060002001549050919050565b600061124260115490565b905090565b61124f611df2565b601261125b8282612b14565b5050565b6014805461126c90612a3f565b80601f016020809104026020016040519081016040528092919081815260200182805461129890612a3f565b80156112e55780601f106112ba576101008083540402835291602001916112e5565b820191906000526020600020905b8154815290600101906020018083116112c857829003601f168201915b505050505081565b6000818152600260205260408120546001600160a01b0316806109755760405162461bcd60e51b8152602060048201526018602482015277115490cdcc8c4e881a5b9d985b1a59081d1bdad95b88125160421b60448201526064016102b5565b611355611df2565b601955565b60006001600160a01b0382166113c45760405162461bcd60e51b815260206004820152602960248201527f4552433732313a2061646472657373207a65726f206973206e6f7420612076616044820152683634b21037bbb732b960b91b60648201526084016102b5565b506001600160a01b031660009081526003602052604090205490565b6113e8611df2565b6113f260006120a4565b565b336113fe826112ed565b6001600160a01b0316146114545760405162461bcd60e51b815260206004820152601b60248201527f43616c6c657220646f6573206e6f74206f776e20746865204e4654000000000060448201526064016102b5565b600060015b600e548111611582576000818152600f6020908152604080832086845290915290205460ff1615801561149a57506000818152600d60205260409020548311155b15611570576000818152600d602052604090206001810154478111156115025760405162461bcd60e51b815260206004820152601d60248201527f496e73756666696369656e7420636f6e74726163742062616c616e636500000060448201526064016102b5565b6000838152600f602090815260408083208884529091529020805460ff19166001179055611530818561267e565b935084837f625f0d536f64b06e1fc7914e3aa5678fc3ff7127caf393cf5c758af6965720848360405161156591815260200190565b60405180910390a350505b8061157a81612c9d565b915050611459565b50801561125b5761125b3382611e4c565b61159b611df2565b600c8054600091829055906115b8600a546001600160a01b031690565b6001600160a01b03168260405160006040518083038185875af1925050503d8060008114611602576040519150601f19603f3d011682016040523d82523d6000602084013e611607565b606091505b505090508061125b5760405162461bcd60e51b815260206004820152601060248201526f2a3930b739b332b9103330b4b632b21760811b60448201526064016102b5565b6015805461126c90612a3f565b60606001805461098a90612a3f565b61166f611df2565b601a55565b61125b3383836120f6565b6116893383611d2c565b6116a55760405162461bcd60e51b81526004016102b590612a79565b6116b1848484846121c4565b50505050565b6000818152600260205260409020546060906001600160a01b03166117365760405162461bcd60e51b815260206004820152602f60248201527f4552433732314d657461646174613a2055524920717565727920666f72206e6f60448201526e3732bc34b9ba32b73a103a37b5b2b760891b60648201526084016102b5565b6012805461174390612a3f565b80601f016020809104026020016040519081016040528092919081815260200182805461176f90612a3f565b80156117bc5780601f10611791576101008083540402835291602001916117bc565b820191906000526020600020905b81548152906001019060200180831161179f57829003601f168201915b50505050509050919050565b6117d0611df2565b601655565b6117f9604051806060016040528060228152602001612e46602291398383336121f7565b60006118036110af565b9050803410156118555760405162461bcd60e51b815260206004820152601760248201527f496e73756666696369656e742066756e64732073656e7400000000000000000060448201526064016102b5565b60146118618482612b14565b50601561186e8382612b14565b50601a5461187c903461267e565b60175542601855600b546000906064906118969034612645565b6118a0919061265c565b905080600c60008282546118b4919061267e565b90915550600090506118c68234612691565b90506001600e60008282546118db919061267e565b909155505060115460008082116118f35760006118fd565b6118fd828461265c565b6040805180820182528481526020808201848152600e80546000908152600d8452859020935184559051600190930192909255905482518681529182018490529293507f2df6562a84e8230615692a4ab0f0a5ed8c530ddef1234943bc37aa74646bb876910160405180910390a2336001600160a01b03167fc3de0fd922507907f842c767b8f5c8867f70083c0a216ae592befcda1502d9bf8888346040516119a893929190612cb6565b60405180910390a250505050505050565b6119c1611df2565b6001600160a01b038116611a265760405162461bcd60e51b815260206004820152602660248201527f4f776e61626c653a206e6577206f776e657220697320746865207a65726f206160448201526564647265737360d01b60648201526084016102b5565b610c23816120a4565b60006001600160e01b031982166380ac58cd60e01b1480611a6057506001600160e01b03198216635b5e139f60e01b145b8061097557506301ffc9a760e01b6001600160e01b0319831614610975565b6000818152600260205260409020546001600160a01b0316610c235760405162461bcd60e51b8152602060048201526018602482015277115490cdcc8c4e881a5b9d985b1a59081d1bdad95b88125160421b60448201526064016102b5565b600081815260046020526040902080546001600160a01b0319166001600160a01b0384169081179091558190611b13826112ed565b6001600160a01b03167f8c5be1e5ebec7d5bd14f71427d1e84f3dd0314c0f7b2291e5b200ac8c7c3b92560405160405180910390a45050565b6001600160a01b038216611ba25760405162461bcd60e51b815260206004820181905260248201527f4552433732313a206d696e7420746f20746865207a65726f206164647265737360448201526064016102b5565b6000818152600260205260409020546001600160a01b031615611c075760405162461bcd60e51b815260206004820152601c60248201527f4552433732313a20746f6b656e20616c7265616479206d696e7465640000000060448201526064016102b5565b611c15600083836001612240565b6000818152600260205260409020546001600160a01b031615611c7a5760405162461bcd60e51b815260206004820152601c60248201527f4552433732313a20746f6b656e20616c7265616479206d696e7465640000000060448201526064016102b5565b6001600160a01b038216600081815260036020908152604080832080546001019055848352600290915280822080546001600160a01b0319168417905551839291907fddf252ad1be2c89b69c2b068fc378daa952ba7f163c4a11628f55a4df523b3ef908290a45050565b610b44838383604051602401611cfd93929190612cdb565b60408051601f198184030181529190526020810180516001600160e01b031663038fd88960e31b179052612374565b600080611d38836112ed565b9050806001600160a01b0316846001600160a01b03161480611d7f57506001600160a01b0380821660009081526005602090815260408083209388168352929052205460ff165b806111455750836001600160a01b0316611d9884610a0d565b6001600160a01b031614949350505050565b60405162461bcd60e51b815260206004820152601960248201527f4e46547320617265206e6f6e2d7472616e7366657261626c650000000000000060448201526064016102b5565b600a546001600160a01b031633146113f25760405162461bcd60e51b815260206004820181905260248201527f4f776e61626c653a2063616c6c6572206973206e6f7420746865206f776e657260448201526064016102b5565b80471015611e9c5760405162461bcd60e51b815260206004820152601d60248201527f416464726573733a20696e73756666696369656e742062616c616e636500000060448201526064016102b5565b6000826001600160a01b03168260405160006040518083038185875af1925050503d8060008114611ee9576040519150601f19603f3d011682016040523d82523d6000602084013e611eee565b606091505b5050905080610b445760405162461bcd60e51b815260206004820152603a60248201527f416464726573733a20756e61626c6520746f2073656e642076616c75652c207260448201527f6563697069656e74206d6179206861766520726576657274656400000000000060648201526084016102b5565b6000611f70826112ed565b9050611f80816000846001612240565b611f89826112ed565b600083815260046020908152604080832080546001600160a01b03199081169091556001600160a01b0385168085526003845282852080546000190190558785526002909352818420805490911690555192935084927fddf252ad1be2c89b69c2b068fc378daa952ba7f163c4a11628f55a4df523b3ef908390a45050565b8054806120575760405162461bcd60e51b815260206004820152601b60248201527f436f756e7465723a2064656372656d656e74206f766572666c6f77000000000060448201526064016102b5565b600019019055565b61125b8282604051602401612075929190612d0e565b60408051601f198184030181529190526020810180516001600160e01b0316632d839cb360e21b179052612374565b600a80546001600160a01b038381166001600160a01b0319831681179093556040519116919082907f8be0079c531659141344cd1fd0a4f28419497f9722a3daafe3b4186f6b6457e090600090a35050565b816001600160a01b0316836001600160a01b0316036121575760405162461bcd60e51b815260206004820152601960248201527f4552433732313a20617070726f766520746f2063616c6c65720000000000000060448201526064016102b5565b6001600160a01b03838116600081815260056020908152604080832094871680845294825291829020805460ff191686151590811790915591519182527f17307eab39ab6107e8899845ad3d59bd9653f200f220920489ca2b5937696c31910160405180910390a3505050565b6121cf848484611daa565b6121db8484848461237d565b6116b15760405162461bcd60e51b81526004016102b590612d30565b6116b1848484846040516024016122119493929190612d82565b60408051601f198184030181529190526020810180516001600160e01b0316631b55cbd160e21b179052612374565b60018111156122af5760405162461bcd60e51b815260206004820152603560248201527f455243373231456e756d657261626c653a20636f6e7365637574697665207472604482015274185b9cd9995c9cc81b9bdd081cdd5c1c1bdc9d1959605a1b60648201526084016102b5565b816001600160a01b03851661230b5761230681600880546000838152600960205260408120829055600182018355919091527ff3f7a9fe364faab93b216da50a3214154f22a0a2b415b23a84c8169e8b636ee30155565b61232e565b836001600160a01b0316856001600160a01b03161461232e5761232e858261247e565b6001600160a01b03841661234a576123458161251b565b61236d565b846001600160a01b0316846001600160a01b03161461236d5761236d84826125ca565b5050505050565b610c238161260e565b60006001600160a01b0384163b1561247357604051630a85bd0160e11b81526001600160a01b0385169063150b7a02906123c1903390899088908890600401612dd5565b6020604051808303816000875af19250505080156123fc575060408051601f3d908101601f191682019092526123f991810190612e12565b60015b612459573d80801561242a576040519150601f19603f3d011682016040523d82523d6000602084013e61242f565b606091505b5080516000036124515760405162461bcd60e51b81526004016102b590612d30565b805181602001fd5b6001600160e01b031916630a85bd0160e11b149050611145565b506001949350505050565b6000600161248b8461135a565b6124959190612691565b6000838152600760205260409020549091508082146124e8576001600160a01b03841660009081526006602090815260408083208584528252808320548484528184208190558352600790915290208190555b5060009182526007602090815260408084208490556001600160a01b039094168352600681528383209183525290812055565b60085460009061252d90600190612691565b6000838152600960205260408120546008805493945090928490811061255557612555612c87565b90600052602060002001549050806008838154811061257657612576612c87565b60009182526020808320909101929092558281526009909152604080822084905585825281205560088054806125ae576125ae612e2f565b6001900381819060005260206000200160009055905550505050565b60006125d58361135a565b6001600160a01b039093166000908152600660209081526040808320868452825280832085905593825260079052919091209190915550565b60006a636f6e736f6c652e6c6f679050600080835160208501845afa505050565b634e487b7160e01b600052601160045260246000fd5b80820281158282048414176109755761097561262f565b60008261267957634e487b7160e01b600052601260045260246000fd5b500490565b808201808211156109755761097561262f565b818103818111156109755761097561262f565b6001600160e01b031981168114610c2357600080fd5b6000602082840312156126cc57600080fd5b81356126d7816126a4565b9392505050565b6000815180845260005b81811015612704576020818501810151868301820152016126e8565b506000602082860101526020601f19601f83011685010191505092915050565b6020815260006126d760208301846126de565b60006020828403121561274957600080fd5b5035919050565b80356001600160a01b038116811461276757600080fd5b919050565b6000806040838503121561277f57600080fd5b61278883612750565b946020939093013593505050565b6000806000606084860312156127ab57600080fd5b6127b484612750565b92506127c260208501612750565b9150604084013590509250925092565b634e487b7160e01b600052604160045260246000fd5b600067ffffffffffffffff80841115612803576128036127d2565b604051601f8501601f19908116603f0116810190828211818310171561282b5761282b6127d2565b8160405280935085815286868601111561284457600080fd5b858560208301376000602087830101525050509392505050565b600082601f83011261286f57600080fd5b6126d7838335602085016127e8565b6000806040838503121561289157600080fd5b823567ffffffffffffffff808211156128a957600080fd5b6128b58683870161285e565b935060208501359150808211156128cb57600080fd5b506128d88582860161285e565b9150509250929050565b600080604083850312156128f557600080fd5b50508035926020909101359150565b60006020828403121561291657600080fd5b813567ffffffffffffffff81111561292d57600080fd5b6111458482850161285e565b60006020828403121561294b57600080fd5b6126d782612750565b6000806040838503121561296757600080fd5b61297083612750565b91506020830135801515811461298557600080fd5b809150509250929050565b600080600080608085870312156129a657600080fd5b6129af85612750565b93506129bd60208601612750565b925060408501359150606085013567ffffffffffffffff8111156129e057600080fd5b8501601f810187136129f157600080fd5b612a00878235602084016127e8565b91505092959194509250565b60008060408385031215612a1f57600080fd5b612a2883612750565b9150612a3660208401612750565b90509250929050565b600181811c90821680612a5357607f821691505b602082108103612a7357634e487b7160e01b600052602260045260246000fd5b50919050565b6020808252602d908201527f4552433732313a2063616c6c6572206973206e6f7420746f6b656e206f776e6560408201526c1c881bdc88185c1c1c9bdd9959609a1b606082015260800190565b601f821115610b4457600081815260208120601f850160051c81016020861015612aed5750805b601f850160051c820191505b81811015612b0c57828155600101612af9565b505050505050565b815167ffffffffffffffff811115612b2e57612b2e6127d2565b612b4281612b3c8454612a3f565b84612ac6565b602080601f831160018114612b775760008415612b5f5750858301515b600019600386901b1c1916600185901b178555612b0c565b600085815260208120601f198616915b82811015612ba657888601518255948401946001909101908401612b87565b5085821015612bc45787850151600019600388901b60f8161c191681555b5050505050600190811b01905550565b60008154612be181612a3f565b808552602060018381168015612bfe5760018114612c1857612c46565b60ff1985168884015283151560051b880183019550612c46565b866000528260002060005b85811015612c3e5781548a8201860152908301908401612c23565b890184019650505b505050505092915050565b606081526000612c646060830186612bd4565b8281036020840152612c768186612bd4565b915050826040830152949350505050565b634e487b7160e01b600052603260045260246000fd5b600060018201612caf57612caf61262f565b5060010190565b606081526000612cc960608301866126de565b8281036020840152612c7681866126de565b606081526000612cee60608301866126de565b6020830194909452506001600160a01b0391909116604090910152919050565b604081526000612d2160408301856126de565b90508260208301529392505050565b60208082526032908201527f4552433732313a207472616e7366657220746f206e6f6e20455243373231526560408201527131b2b4bb32b91034b6b83632b6b2b73a32b960711b606082015260800190565b608081526000612d9560808301876126de565b8281036020840152612da781876126de565b90508281036040840152612dbb81866126de565b91505060018060a01b038316606083015295945050505050565b6001600160a01b0385811682528416602082015260408101839052608060608201819052600090612e08908301846126de565b9695505050505050565b600060208284031215612e2457600080fd5b81516126d7816126a4565b634e487b7160e01b600052603160045260246000fdfe53657474696e67206e65772062696c6c626f61726420272573272066726f6d202573a26469706673582212200d4b6d6825875f0fd71aa237738c8a7edf48de8206073ac938978d79f0174f5464736f6c63430008110033",
  "devdoc": {
    "author": "zherring",
    "kind": "dev",
    "methods": {
      "adminSetBillboardMessage(string,string)": {
        "details": "Function to allow the owner to change the billboard message. Message is optional, otherwise it defaults to start message. In case of spam or harmful messages!",
        "params": {
          "_newBillboardMessage": "The new message to set on the billboard.",
          "_newBillboardURL": "The new URL to set on the billboard."
        }
      },
      "approve(address,uint256)": {
        "details": "See {IERC721-approve}."
      },
      "balanceOf(address)": {
        "details": "See {IERC721-balanceOf}."
      },
      "burn(uint256)": {
        "details": "allows user to burn the billboard. Adjusts the activeTokens count so accurate shares are recorded for future epochs.",
        "params": {
          "tokenId": "is token to be burned"
        }
      },
      "getApproved(uint256)": {
        "details": "See {IERC721-getApproved}."
      },
      "isApprovedForAll(address,address)": {
        "details": "See {IERC721-isApprovedForAll}."
      },
      "name()": {
        "details": "See {IERC721Metadata-name}."
      },
      "owner()": {
        "details": "Returns the address of the current owner."
      },
      "ownerOf(uint256)": {
        "details": "See {IERC721-ownerOf}."
      },
      "renounceOwnership()": {
        "details": "Leaves the contract without owner. It will not be possible to call `onlyOwner` functions anymore. Can only be called by the current owner. NOTE: Renouncing ownership will leave the contract without an owner, thereby removing any functionality that is only available to the owner."
      },
      "safeTransferFrom(address,address,uint256)": {
        "details": "See {IERC721-safeTransferFrom}."
      },
      "safeTransferFrom(address,address,uint256,bytes)": {
        "details": "See {IERC721-safeTransferFrom}."
      },
      "setApprovalForAll(address,bool)": {
        "details": "See {IERC721-setApprovalForAll}."
      },
      "setBasePrice(uint256)": {
        "details": "Allows the admin to set a new base price (e.g, lowest possible price to charge)",
        "params": {
          "_newBasePrice": "The new base price to be set."
        }
      },
      "setBillboard(string,string)": {
        "params": {
          "_newBillboardMessage": "(string memory) - new billboard message to save on the contract",
          "_newBillboardURL": "(string memory) - not required"
        }
      },
      "setDecreaseRate(uint256)": {
        "details": "Allows the admin to set a new decrease rate. Decrease rate is applied every block to AdjustedPrice.",
        "params": {
          "_newDecreaseRate": "The new decrease rate to be set."
        }
      },
      "setIncreaseRate(uint256)": {
        "details": "Allows the admin to set a new increase rate. Increase rate is applied upon updateBillboard and mintNFT",
        "params": {
          "_newIncreaseRate": "The new increase rate to be set."
        }
      },
      "supportsInterface(bytes4)": {
        "details": "See {IERC165-supportsInterface}."
      },
      "symbol()": {
        "details": "See {IERC721Metadata-symbol}."
      },
      "tokenByIndex(uint256)": {
        "details": "See {IERC721Enumerable-tokenByIndex}."
      },
      "tokenOfOwnerByIndex(address,uint256)": {
        "details": "See {IERC721Enumerable-tokenOfOwnerByIndex}."
      },
      "tokenURI(uint256)": {
        "details": "See {IERC721Metadata-tokenURI}."
      },
      "totalSupply()": {
        "details": "See {IERC721Enumerable-totalSupply}."
      },
      "transferFrom(address,address,uint256)": {
        "details": "See {IERC721-transferFrom}."
      },
      "transferOwnership(address)": {
        "details": "Transfers ownership of the contract to a new account (`newOwner`). Can only be called by the current owner."
      }
    },
    "version": 1
  },
  "userdoc": {
    "kind": "user",
    "methods": {
      "setBillboard(string,string)": {
        "notice": "Function that allows anyone to change the state variable \"billboard\" and billboardURL of the contract"
      }
    },
    "notice": "A simple billboard smartcontract, where a message state variable is for sale! Folks who mint the NFT  opt in to be advertised to, and so are entitled to a cut from the ad revenue users will see ads in their wallet, embedded in their app, or posted on social media like Warpcast  TODOS for V2  - Figure out refund for ads that are replaced too quickly that doesn't encourage too much sybling  - \t- Idea: 10% Protocol Fee paid regardless, small window (1 hour?)",
    "version": 1
  },
  "storageLayout": {
    "storage": [
      {
        "astId": 138,
        "contract": "contracts/YourContract.sol:YourContract",
        "label": "_name",
        "offset": 0,
        "slot": "0",
        "type": "t_string_storage"
      },
      {
        "astId": 140,
        "contract": "contracts/YourContract.sol:YourContract",
        "label": "_symbol",
        "offset": 0,
        "slot": "1",
        "type": "t_string_storage"
      },
      {
        "astId": 144,
        "contract": "contracts/YourContract.sol:YourContract",
        "label": "_owners",
        "offset": 0,
        "slot": "2",
        "type": "t_mapping(t_uint256,t_address)"
      },
      {
        "astId": 148,
        "contract": "contracts/YourContract.sol:YourContract",
        "label": "_balances",
        "offset": 0,
        "slot": "3",
        "type": "t_mapping(t_address,t_uint256)"
      },
      {
        "astId": 152,
        "contract": "contracts/YourContract.sol:YourContract",
        "label": "_tokenApprovals",
        "offset": 0,
        "slot": "4",
        "type": "t_mapping(t_uint256,t_address)"
      },
      {
        "astId": 158,
        "contract": "contracts/YourContract.sol:YourContract",
        "label": "_operatorApprovals",
        "offset": 0,
        "slot": "5",
        "type": "t_mapping(t_address,t_mapping(t_address,t_bool))"
      },
      {
        "astId": 1188,
        "contract": "contracts/YourContract.sol:YourContract",
        "label": "_ownedTokens",
        "offset": 0,
        "slot": "6",
        "type": "t_mapping(t_address,t_mapping(t_uint256,t_uint256))"
      },
      {
        "astId": 1192,
        "contract": "contracts/YourContract.sol:YourContract",
        "label": "_ownedTokensIndex",
        "offset": 0,
        "slot": "7",
        "type": "t_mapping(t_uint256,t_uint256)"
      },
      {
        "astId": 1195,
        "contract": "contracts/YourContract.sol:YourContract",
        "label": "_allTokens",
        "offset": 0,
        "slot": "8",
        "type": "t_array(t_uint256)dyn_storage"
      },
      {
        "astId": 1199,
        "contract": "contracts/YourContract.sol:YourContract",
        "label": "_allTokensIndex",
        "offset": 0,
        "slot": "9",
        "type": "t_mapping(t_uint256,t_uint256)"
      },
      {
        "astId": 7,
        "contract": "contracts/YourContract.sol:YourContract",
        "label": "_owner",
        "offset": 0,
        "slot": "10",
        "type": "t_address"
      },
      {
        "astId": 3103,
        "contract": "contracts/YourContract.sol:YourContract",
        "label": "protocolFee",
        "offset": 0,
        "slot": "11",
        "type": "t_uint256"
      },
      {
        "astId": 3106,
        "contract": "contracts/YourContract.sol:YourContract",
        "label": "protocolRevenue",
        "offset": 0,
        "slot": "12",
        "type": "t_uint256"
      },
      {
        "astId": 3116,
        "contract": "contracts/YourContract.sol:YourContract",
        "label": "epochs",
        "offset": 0,
        "slot": "13",
        "type": "t_mapping(t_uint256,t_struct(epochData)3111_storage)"
      },
      {
        "astId": 3119,
        "contract": "contracts/YourContract.sol:YourContract",
        "label": "currentEpoch",
        "offset": 0,
        "slot": "14",
        "type": "t_uint256"
      },
      {
        "astId": 3125,
        "contract": "contracts/YourContract.sol:YourContract",
        "label": "hasWithdrawn",
        "offset": 0,
        "slot": "15",
        "type": "t_mapping(t_uint256,t_mapping(t_uint256,t_bool))"
      },
      {
        "astId": 3132,
        "contract": "contracts/YourContract.sol:YourContract",
        "label": "_tokenIds",
        "offset": 0,
        "slot": "16",
        "type": "t_struct(Counter)1943_storage"
      },
      {
        "astId": 3135,
        "contract": "contracts/YourContract.sol:YourContract",
        "label": "_activeTokens",
        "offset": 0,
        "slot": "17",
        "type": "t_struct(Counter)1943_storage"
      },
      {
        "astId": 3137,
        "contract": "contracts/YourContract.sol:YourContract",
        "label": "_commonURI",
        "offset": 0,
        "slot": "18",
        "type": "t_string_storage"
      },
      {
        "astId": 3172,
        "contract": "contracts/YourContract.sol:YourContract",
        "label": "nftIdWithdraws",
        "offset": 0,
        "slot": "19",
        "type": "t_mapping(t_uint256,t_array(t_uint256)dyn_storage)"
      },
      {
        "astId": 3175,
        "contract": "contracts/YourContract.sol:YourContract",
        "label": "billboard",
        "offset": 0,
        "slot": "20",
        "type": "t_string_storage"
      },
      {
        "astId": 3178,
        "contract": "contracts/YourContract.sol:YourContract",
        "label": "billboardURL",
        "offset": 0,
        "slot": "21",
        "type": "t_string_storage"
      },
      {
        "astId": 3181,
        "contract": "contracts/YourContract.sol:YourContract",
        "label": "basePrice",
        "offset": 0,
        "slot": "22",
        "type": "t_uint256"
      },
      {
        "astId": 3184,
        "contract": "contracts/YourContract.sol:YourContract",
        "label": "lastPrice",
        "offset": 0,
        "slot": "23",
        "type": "t_uint256"
      },
      {
        "astId": 3186,
        "contract": "contracts/YourContract.sol:YourContract",
        "label": "lastUpdateTime",
        "offset": 0,
        "slot": "24",
        "type": "t_uint256"
      },
      {
        "astId": 3189,
        "contract": "contracts/YourContract.sol:YourContract",
        "label": "decreaseRate",
        "offset": 0,
        "slot": "25",
        "type": "t_uint256"
      },
      {
        "astId": 3192,
        "contract": "contracts/YourContract.sol:YourContract",
        "label": "increaseRate",
        "offset": 0,
        "slot": "26",
        "type": "t_uint256"
      }
    ],
    "types": {
      "t_address": {
        "encoding": "inplace",
        "label": "address",
        "numberOfBytes": "20"
      },
      "t_array(t_uint256)dyn_storage": {
        "base": "t_uint256",
        "encoding": "dynamic_array",
        "label": "uint256[]",
        "numberOfBytes": "32"
      },
      "t_bool": {
        "encoding": "inplace",
        "label": "bool",
        "numberOfBytes": "1"
      },
      "t_mapping(t_address,t_bool)": {
        "encoding": "mapping",
        "key": "t_address",
        "label": "mapping(address => bool)",
        "numberOfBytes": "32",
        "value": "t_bool"
      },
      "t_mapping(t_address,t_mapping(t_address,t_bool))": {
        "encoding": "mapping",
        "key": "t_address",
        "label": "mapping(address => mapping(address => bool))",
        "numberOfBytes": "32",
        "value": "t_mapping(t_address,t_bool)"
      },
      "t_mapping(t_address,t_mapping(t_uint256,t_uint256))": {
        "encoding": "mapping",
        "key": "t_address",
        "label": "mapping(address => mapping(uint256 => uint256))",
        "numberOfBytes": "32",
        "value": "t_mapping(t_uint256,t_uint256)"
      },
      "t_mapping(t_address,t_uint256)": {
        "encoding": "mapping",
        "key": "t_address",
        "label": "mapping(address => uint256)",
        "numberOfBytes": "32",
        "value": "t_uint256"
      },
      "t_mapping(t_uint256,t_address)": {
        "encoding": "mapping",
        "key": "t_uint256",
        "label": "mapping(uint256 => address)",
        "numberOfBytes": "32",
        "value": "t_address"
      },
      "t_mapping(t_uint256,t_array(t_uint256)dyn_storage)": {
        "encoding": "mapping",
        "key": "t_uint256",
        "label": "mapping(uint256 => uint256[])",
        "numberOfBytes": "32",
        "value": "t_array(t_uint256)dyn_storage"
      },
      "t_mapping(t_uint256,t_bool)": {
        "encoding": "mapping",
        "key": "t_uint256",
        "label": "mapping(uint256 => bool)",
        "numberOfBytes": "32",
        "value": "t_bool"
      },
      "t_mapping(t_uint256,t_mapping(t_uint256,t_bool))": {
        "encoding": "mapping",
        "key": "t_uint256",
        "label": "mapping(uint256 => mapping(uint256 => bool))",
        "numberOfBytes": "32",
        "value": "t_mapping(t_uint256,t_bool)"
      },
      "t_mapping(t_uint256,t_struct(epochData)3111_storage)": {
        "encoding": "mapping",
        "key": "t_uint256",
        "label": "mapping(uint256 => struct YourContract.epochData)",
        "numberOfBytes": "32",
        "value": "t_struct(epochData)3111_storage"
      },
      "t_mapping(t_uint256,t_uint256)": {
        "encoding": "mapping",
        "key": "t_uint256",
        "label": "mapping(uint256 => uint256)",
        "numberOfBytes": "32",
        "value": "t_uint256"
      },
      "t_string_storage": {
        "encoding": "bytes",
        "label": "string",
        "numberOfBytes": "32"
      },
      "t_struct(Counter)1943_storage": {
        "encoding": "inplace",
        "label": "struct Counters.Counter",
        "members": [
          {
            "astId": 1942,
            "contract": "contracts/YourContract.sol:YourContract",
            "label": "_value",
            "offset": 0,
            "slot": "0",
            "type": "t_uint256"
          }
        ],
        "numberOfBytes": "32"
      },
      "t_struct(epochData)3111_storage": {
        "encoding": "inplace",
        "label": "struct YourContract.epochData",
        "members": [
          {
            "astId": 3108,
            "contract": "contracts/YourContract.sol:YourContract",
            "label": "nftsMinted",
            "offset": 0,
            "slot": "0",
            "type": "t_uint256"
          },
          {
            "astId": 3110,
            "contract": "contracts/YourContract.sol:YourContract",
            "label": "amtOwed",
            "offset": 0,
            "slot": "1",
            "type": "t_uint256"
          }
        ],
        "numberOfBytes": "64"
      },
      "t_uint256": {
        "encoding": "inplace",
        "label": "uint256",
        "numberOfBytes": "32"
      }
    }
  }
}